S00F000049556D657465722E737265635A
S11300000C9434000C9451000C9451000C94510045
S11300100C9451000C9451000C9451000C94510018
S11300200C9451000C9451000C9451000C94510008
S11300300C9451000C9451000C949E010C945100AA
S11300400C9451000C9451000C9451000C945100E8
S11300500C9451000C94C3010C9451000C94510065
S11300600C9451000C94510011241FBECFEFD8E022
S1130070DEBFCDBF11E0A0E0B1E0EEEFFDE102C0D4
S113008005900D92A034B107D9F721E0A0E4B1E0C6
S113009001C01D92AD3DB207E1F70E9446090C94E0
S11300A0FD0E0C940000569857985E9A5F9A5498E7
S11300B055985C9A5D9A089599B194FB332730F969
S11300C04D99326020914001822F8370381769F076
S11300D044E0249FC0011124932F982B9093400156
S11300E0913E29F081E0923D19F080E008958FEF70
S11300F0089594B1976094B997B19C6397B929987E
S1130100662311F0289A01C0289898B1937C98B975
S113011083FD459A82FD449A81FD439A80FD429A6B
S11301202A9A8AE18A95F1F700C02A98089594B131
S1130130976094B9299A882311F0289A01C02898C5
S11301402A9A87B1837C87B988B18C6388B98AE19C
S11301508A95F1F700C02A98359B02C088E001C057
S113016080E0349984603399826032998160089583
S1130170CF93DF93C82F0E949700D82FD295D07FBA
S11301808C2F0E9497008D2BDF91CF910895CF93F0
S1130190DF93C82FD62F82958F700E9479006D2F20
S11301A08C2FDF91CF910C94790080E00E94B800ED
S11301B0880F880B089560E083E00E9479008FE146
S11301C09EE40197F1F700C0000060E083E00E9424
S11301D0790087EB91E00197F1F700C0000060E03F
S11301E083E00E9479000E94D5008111FCCF60E079
S11301F082E00E9479000E94D5008111FCCF60E06A
S113020088E20E94C7000E94D5008111FCCF60E003
S113021081E00E94C7000E94D5008111FCCF60E0FC
S113022086E00E94C7000E94D5008111FCCF60E0E7
S11302308CE00C94C700CF93DF93D82FC62F0E9475
S1130240D5008111FCCF8C2F90E4D99F800D11240F
S113025060E080680E94C700C0E00E94D500882347
S113026011F0C1E0FACF8C2FDF91CF9108950F9355
S11302701F93CF93DF93EC018E018881882359F07B
S11302800E94D5008111FCCF219661E0F8018081A4
S11302900E94C700F1CFDF91CF911F910F91089574
S11302A082E084BD93E095BD80936E008AEF87BDA4
S11302B008952FB7F89460914101709142018091A3
S11302C04301909144012FBF0895E4E6F0E080815A
S11302D08F7D8083EEE6F0E08081826080830895E4
S11302E08FB7F89410924101109242011092430189
S11302F0109244018FBF0895CF92DF92EF92FF9244
S11303002FB7F894C0904101D0904201E09043018E
S1130310F0904401DC01CB018C0D9D1DAE1DBF1D71
S11303208093410190934201A0934301B09344010F
S11303302FBFFF90EF90DF90CF9008951F920F9200
S11303400FB60F9211248F939F93AF93BF93809115
S1130350410190914201A0914301B0914401019661
S1130360A11DB11D8093410190934201A0934301CB
S1130370B0934401BF91AF919F918F910F900FBEA5
S11303800F901F90189518959DE088E10FB6F8948A
S1130390A895809360000FBE90936000A8952FEFFE
S11303A080E792E0215080409040E1F700C00000D7
S11303B00E94DB00A89587E090E00E94770E6034ED
S11303C022E472072FE08207910548F46093D1017B
S11303D07093D2018093D3019093D40114C082E32B
S11303E090E0A0E0B0E08093D1019093D201A0937B
S11303F0D301B093D40144EF51E060E070E087E0B2
S113040090E00E94890E0E9450010E946501259A85
S11304102D98399A419A389A409A239A2B9A519A4C
S1130420599A509A589A52985A9A24982C9A5398AE
S11304305B9A0E9453001092CC0183E08093CB011D
S113044083B7817F826083BF83B7816083BF7894E1
S113045008952F923F924F925F926F927F928F9264
S11304609F92AF92BF92CF92DF92EF92FF920F933F
S11304701F93CF93DF93CDB7DEB7A2970FB6F8944F
S1130480DEBF0FBECDBF8091CB01882309F42BC101
S11304908091CC01811127C1809100019E012E5EC3
S11304A03F4F59018E010F5F1F4F813009F0FBC090
S11304B08091AE01882349F09090D1018090D201BF
S11304C07090D3016090D40108C09090BF018090D7
S11304D0C0017090C1016090C2018091C6018F93E8
S11304E08091C5018F938091C4018F938091C30142
S11304F08F9385E091E09F938F93BF92AF920E9478
S1130500C40B0FB6F894DEBF0FBECDBF8091B4010B
S1130510882309F475C08091BA018230C1F018F4BF
S1130520813031F038C0833019F0843081F033C029
S11305300E945901C090B601D090B701E090B80173
S1130540F090B90120E03AEB4BED50E00EC00E9470
S11305505901C090B601D090B701E090B801F09075
S1130560B90121E63AEE40E050E019012A012C18C5
S11305703D084E085F08A2019101261B370B480B6A
S1130580590BCA01B90128EE33E040E050E00E9463
S1130590880B69017A01C701B60120E13EE040E021
S11305A050E00E94880B522E432E342E252EA0E1BB
S11305B0BEE00E94AA0BC61AD70AE80AF90AC701C4
S11305C0B6012CE330E040E050E00E94880B6F92CB
S11305D07F928F929F924CE3249FC01811241F9204
S11305E0CF923F932F932F923F924F925F9289E144
S11305F091E09F938F931F930F930E94C40B0CC0A1
S11306006F927F928F929F9280E391E09F938F935A
S11306101F930F930E94C40B0FB6F894DEBF0FBE56
S1130620CDBF8091AE018823F1F19EE39A87823099
S1130630D1F58091010190910201A0910301B09143
S1130640040184369105A105B10529F160F48130D6
S11306509105A105B105E1F00A97A105B10519F5C8
S113066080E28F8720C0803137E29307A105B1056E
S1130670A9F0803A46E8940741E0A407B10589F05F
S1130680883E9340A105B10571F480E28D870BC0CB
S113069080E2888B08C080E28E8705C080E28C8768
S11306A002C080E28B871AA2198A60E080E00E946F
S11306B01B01811105C00E94DB0081E08093CB0106
S11306C0C5010E94370160E081E00E941B01811195
S11306D005C00E94DB0081E08093CB01C8010E9429
S11306E037011092CB01A2960FB6F894DEBF0FBE6D
S11306F0CDBFDF91CF911F910F91FF90EF90DF90CD
S1130700CF90BF90AF909F908F907F906F905F90AD
S11307104F903F902F900895209101013091020154
S11307204091030150910401203A86E8380781E0A2
S11307304807510569F481E090E0A0E0B0E08093BF
S1130740010190930201A0930301B09304010CC032
S1130750AAE0B0E00E94AA0B609301017093020129
S113076080930301909304011092D9011092DA014D
S11307701092DB011092DC018091CB0180688093A0
S1130780CB0108956091C7017091C8018091C9019E
S11307909091CA010E94640A20E030E84CE853E4D6
S11307A00E9457090E94350A6093C7017093C801DB
S11307B08093C9019093CA018091C7019091C801A7
S11307C0A091C901B091CA0180389E43A105B10529
S11307D0D8F061E070E080E090E00E947C018091BC
S11307E0C7019091C801A091C901B091CA01805874
S11307F09E43A109B1098093C7019093C801A093B6
S1130800C901B093CA01D8CF0895CF93DF938093E1
S11308107C0084EC80937A0080917A0088608093D5
S11308207A00889580917A0086FDFBCF80917A00CA
S1130830877F80937A00D0917800C09179000E94DC
S1130840C2038C2F90E0982F88278D0F911DDF9184
S1130850CF910895CF92DF92EF92FF920F931F935F
S11308608091AF01811105C01092AD011092AC01CD
S113087017C08091AC019091AD0101969093AD01A8
S11308808093AC018031974258F01092AF011092DE
S1130890AD011092AC018091CB0180688093CB01B3
S11308A08091AE01811109C01092D9011092DA0130
S11308B01092DB011092DC0154C08091D901909117
S11308C0DA01A091DB01B091DC01AC01BD014F5F05
S11308D05F4F6F4F7F4F4093D9015093DA0160937C
S11308E0DB017093DC018F509742A109B109803775
S11308F09141A140B10548F481E08093AE0180911B
S1130900CB0180688093CB012CC0403858436140B0
S1130910710538F11092AE0181E090E0A0E0B0E002
S11309208093010190930201A0930301B093040109
S11309301092D9011092DA011092DB011092DC01BD
S11309408091CB0180688093CB014091D10150917B
S1130950D2016091D3017091D40187E090E00E94AC
S11309607D0E8091B401811105C01092AB011092EB
S1130970AA018FC08091AA019091AB010196909336
S1130980AB018093AA018035934C08F482C00E9485
S11309905901C090BB01D090BC01E090BD01F09022
S11309A0BE016C197D098E099F090E94640A20E02A
S11309B03AEB4BE55AE40E94C3096B017C01609158
S11309C0C3017091C40180E090E00E94640A9B011D
S11309D0AC01C701B6010E94F70A2DE737E74FE7DC
S11309E05FE30E94F70A2091A6013091A70140918C
S11309F0A8015091A9010E9457096B017C016093E1
S1130A00A6017093A7018093A8019093A90120E007
S1130A1030E0A9010E94F20A181644F5C701B60194
S1130A200E94350A0091BF011091C0012091C101BB
S1130A303091C201060F171F281F391F0093BF01F1
S1130A401093C0012093C1013093C2010E94640A33
S1130A509B01AC01C701B6010E9456096093A6012F
S1130A607093A7018093A8019093A9010E94590152
S1130A706093BB017093BC018093BD019093BE0150
S1130A801092AB011092AA018091CB0180648093F3
S1130A90CB018091D1019091D201A091D301B09169
S1130AA0D4010097A105B10539F12091B4012223A5
S1130AB019F14091BF015091C0016091C101709141
S1130AC0C201481759076A077B07B0F08091A40157
S1130AD09091A5010196883823E1920728F4909318
S1130AE0A5018093A4010EC01092A5011092A40147
S1130AF08091B501882319F01092B50103C081E0FB
S1130B008093B5018091A2019091A3010196883B45
S1130B102BE0920759F09093A3018093A2011F91B7
S1130B200F91FF90EF90DF90CF9008951092A30162
S1130B301092A2011F910F91FF90EF90DF90CF9040
S1130B400C9429020E945C0020910001213009F0DC
S1130B5077C090E08F3F9105C1F58091D1019091CC
S1130B60D201A091D301B091D4010097A105B105A0
S1130B7009F466C0409101015091020160910301A2
S1130B807091040184179507A607B70748F41092DB
S1130B90D1011092D2011092D3011092D4010CC051
S1130BA0841B950BA60BB70B8093D1019093D201B4
S1130BB0A093D301B093D4018091CB018260809340
S1130BC0CB0181E08093AE0133C00197C9F5409118
S1130BD0D1015091D2016091D3017091D4014F336E
S1130BE032E453073FE06307710550F5809101013A
S1130BF090910201A0910301B0910401840F951F0B
S1130C00A61FB71F803432E493073FE0A307B10562
S1130C10B8F48093D1019093D201A093D301B093FF
S1130C20D4018091CB0182608093CB012093AE01EB
S1130C301092D9011092DA011092DB011092DC01BA
S1130C4008950F931F938091B401882309F4B2C0CF
S1130C508091BA018230A1F130F4882309F493C061
S1130C60813041F0A1C0833009F451C0843009F4CB
S1130C7075C09AC00E9459010091B6011091B70144
S1130C802091B8013091B901DC01CB01801B910B9B
S1130C90A20BB30B81159A4BAB4DB10508F484C07C
S1130CA00E9459016093B6017093B7018093B80113
S1130CB09093B90182E08093BA011092B2014BC0C3
S1130CC00E9459010091B6011091B7012091B80119
S1130CD03091B901DC01CB01801B910BA20BB30B4A
S1130CE081369A4EA105B10508F45EC00E945901EF
S1130CF06093B6017093B7018093B8019093B901E2
S1130D0083E08093BA0181E08093B1014BC00E94DB
S1130D1059010091B6011091B7012091B8013091A9
S1130D20B901DC01CB01801B910BA20BB30B811524
S1130D309A4BAB4DB105C0F10E9459016093B601C5
S1130D407093B7018093B8019093B90184E08093C4
S1130D50BA011092B1011092B30126C00E94590148
S1130D600091B6011091B7012091B8013091B901F9
S1130D70DC01CB01801B910BA20BB30B81369A4E85
S1130D80A105B10588F00E9459016093B6017093E2
S1130D90B7018093B8019093B90181E08093BA01BF
S1130DA08093B2018093B3018091CB0180618093E1
S1130DB0CB0106C01092B3011092B2011092B1019E
S1130DC01F910F9108958091B301882319F02D9AF2
S1130DD02B9A02C02D982B988091B201882311F090
S1130DE0419A01C041988091B101882311F0409A41
S1130DF001C040988091B501882311F0599A01C02F
S1130E0059988091B001882311F0589A0895589800
S1130E1008950F931F93CF938091A0019091A10106
S1130E2001969093A1018093A001883C910509F05B
S1130E308FC08091B201811105C08091B1018823D6
S1130E4009F478C0C0919F01C83208F45BC0EFE494
S1130E50F1E080E090E00196DF019C016081718106
S1130E6012964D915C9113974617570730F41396D9
S1130E707C936E931297518340832F5F3F4F12965A
S1130E802832310559F732968732910521F780913E
S1130E90C5019091C601892B09F180917701909148
S1130EA07801A0E0B0E08A309105A105B105C8F051
S1130EB04091C3015091C40160E070E0481B590B9C
S1130EC06A0B7B0B4330510561057105C0F0873E09
S1130ED023E09207A105B10548F403C080E090E047
S1130EE0DC019093C4018093C30104C01092C40137
S1130EF01092C3018091CB0180618093CB01109249
S1130F009F0122C086E490E00E940504EC2FF0E0EB
S1130F10EE0FFF1FE15BFE4F97FD039695958795B6
S1130F20959587959183808380919F018F5F8093AE
S1130F309F010AC08091BA01843031F0823021F0DF
S1130F401092C4011092C3011092A1011092A00149
S1130F508091A0019091A1018436910561F587E407
S1130F6090E00E940504BC01990F880B990B0E9424
S1130F70660A2AE037ED43E251E40E94C3090E9465
S1130F80350A2091C5013091C601261B370B22304A
S1130F90310588F06230710528F41092C601109270
S1130FA0C50104C07093C6016093C5018091CB0153
S1130FB080618093CB010E94590100914B011091F3
S1130FC04C0120914D0130914E01DC01CB01801B7D
S1130FD0910BA20BB30B85369105A105B10508F45D
S1130FE057C080914A01882309F452C010924A01E3
S1130FF01092BB011092BC011092BD011092BE016F
S11310004A9B1BC01092B4010E9459010091B60181
S11310101091B7012091B8013091B901DC01CB01E5
S1131020801B910BA20BB30B8093B6019093B70175
S1131030A093B801B093B90126C0C1E0C093B40134
S11310400E9470016091B6017091B7018091B8015E
S11310509091B9010E947C011092B6011092B701DF
S11310601092B8011092B9018091BA01813039F01F
S1131070833049F4C093B101C093B30104C0809399
S1131080B2018093B3018091CB0184608093CB0142
S11310904A9B12C080914901882371F01092490142
S11310A00E94590160934B0170934C0180934D0150
S11310B090934E0181E013C04A9913C08091490175
S11310C081110FC00E94590160934B0170934C0130
S11310D080934D0190934E0181E080934901809368
S11310E04A01CF911F910F9108958F929F92AF92D1
S11310F0BF92CF92DF92EF92FF920E945901C0906B
S1131100CD01D090CE01E090CF01F090D0014B0101
S11311105C018C189D08AE08BF080E945901C0905C
S1131120D501D090D601E090D701F090D8019B0171
S1131130AC012C193D094E095F0969017A0139EEA8
S1131140831633E09306A104B10480F08091480132
S1131150882361F01092480145E6C416D104E104E5
S1131160F10420F08091470181116FC01C9B09C0DC
S113117080914601882329F010924601109248017B
S113118015C01C9913C08091460181110FC00E94A3
S113119059016093CD017093CE018093CF01909358
S11311A0D00181E0809346018093480159EEC51631
S11311B053E0D506E104F104F8F080914701882357
S11311C0D9F01092470185E688169104A104B10470
S11311D038F080914801882319F0109248014DC0DD
S11311E080910001813041F41092BF011092C0013E
S11311F01092C1011092C2014B9B2AC080914501FB
S1131200882331F125E6C21AD108E108F10833E850
S1131210C31633E0D306E104F104A8F4809100017D
S1131220813089F49091AE01911108C08093AE0190
S11312308091CB0180688093CB0105C082E08093CC
S1131240AE010E948C03109245011092470115C013
S11312504B9913C08091450181110FC00E9459011F
S11312606093D5017093D6018093D7019093D801F0
S113127081E08093450180934701FF90EF90DF90D8
S1131280CF90BF90AF909F908F9008950E94C4011B
S1131290A8950E94A2050E9475080E942A040E9433
S11312A009070E9421060E94E306F2CF5058BB278B
S11312B0AA270E946E090C94B80A0E94AA0A38F060
S11312C00E94B10A20F039F49F3F19F426F40C94DB
S11312D0A70A0EF4E095E7FB0C94A10AE92F0E94FB
S11312E0C90A58F3BA17620773078407950720F0F1
S11312F079F4A6F50C94EB0A0EF4E0950B2EBA2FB4
S1131300A02D0B01B90190010C01CA01A001112407
S1131310FF27591B99F0593F50F4503E68F11A16B3
S1131320F040A22F232F342F4427585FF3CF469544
S113133037952795A795F0405395C9F77EF41F1666
S1131340BA0B620B730B840BBAF09150A1F0FF0F30
S1131350BB1F661F771F881FC2F70EC0BA0F621F1C
S1131360731F841F48F4879577956795B795F7950C
S11313709E3F08F0B0CF9395880F08F09927EE0FA1
S11313809795879508950E94D7090C94B80A0E94EE
S1131390B10A58F00E94AA0A40F029F45F3F29F0EC
S11313A00C94A10A51110C94EC0A0C94A70A0E9403
S11313B0C90A68F39923B1F3552391F3951B550B8F
S11313C0BB27AA2762177307840738F09F5F5F4F14
S11313D0220F331F441FAA1FA9F335D00E2E3AF053
S11313E0E0E832D091505040E695001CCAF72BD06B
S11313F0FE2F29D0660F771F881FBB1F26173707BC
S11314004807AB07B0E809F0BB0B802DBF01FF27ED
S113141093585F4F3AF09E3F510578F00C94A10A1F
S11314200C94EC0A5F3FE4F3983ED4F386957795E9
S11314306795B795F7959F5FC9F7880F911D9695A6
S1131440879597F90895E1E0660F771F881FBB1F02
S1131450621773078407BA0720F0621B730B840BAF
S1131460BA0BEE1F88F7E09508950E94D10A88F020
S11314709F5798F0B92F9927B751B0F0E1F0660F54
S1131480771F881F991F1AF0BA95C9F714C0B13095
S113149091F00E94EB0AB1E008950C94EB0A672FD7
S11314A0782F8827B85F39F0B93FCCF386957795C4
S11314B06795B395D9F73EF49095809570956195AD
S11314C07F4F8F4F9F4F0895E89409C097FB3EF4D8
S11314D090958095709561957F4F8F4F9F4F99237D
S11314E0A9F0F92F96E9BB279395F69587957795FB
S11314F06795B795F111F8CFFAF4BB0F11F460FFBB
S11315001BC06F5F7F4F8F4F9F4F16C0882311F012
S113151096E911C0772321F09EE8872F762F05C026
S1131520662371F096E8862F70E060E02AF09A95C1
S1131530660F771F881FDAF7880F9695879597F9B6
S1131540089597F99F6780E870E060E008959FEF41
S113155080EC089500240A94161617061806090646
S1131560089500240A941216130614060506089515
S1131570092E0394000C11F4882352F0BB0F40F49D
S1131580BF2B11F460FF04C06F5F7F4F8F4F9F4FDD
S1131590089557FD9058440F551F59F05F3F71F05F
S11315A04795880F97FB991F61F09F3F79F08795C6
S11315B00895121613061406551FF2CF4695F1DF4F
S11315C008C0161617061806991FF1CF86957105DF
S11315D0610508940895E894BB2766277727CB0113
S11315E097F908950E94640B08F48FEF08950E9400
S11315F00A0B0C94B80A0E94AA0A38F00E94B10A95
S113160020F0952311F00C94A10A0C94A70A11243C
S11316100C94EC0A0E94C90A70F3959FC1F3950FCC
S113162050E0551F629FF001729FBB27F00DB11D62
S1131630639FAA27F00DB11DAA1F649F6627B00DF2
S1131640A11D661F829F2227B00DA11D621F739FDB
S1131650B00DA11D621F839FA00D611D221F749FE9
S11316603327A00D611D231F849F600D211D822F30
S1131670762F6A2F11249F5750409AF0F1F0882357
S11316804AF0EE0FFF1FBB1F661F771F881F915084
S11316905040A9F79E3F510580F00C94A10A0C9488
S11316A0EC0A5F3FE4F3983ED4F38695779567950B
S11316B0B795F795E7959F5FC1F7FE2B880F911DAE
S11316C09695879597F90895990F0008550FAA0BD9
S11316D0E0E8FEEF16161706E807F907C0F0121641
S11316E01306E407F50798F0621B730B840B950B44
S11316F039F40A2661F0232B242B252B21F4089599
S11317000A2609F4A140A6958FEF811D811D089535
S1131710A1E21A2EAA1BBB1BFD010DC0AA1FBB1FF1
S1131720EE1FFF1FA217B307E407F50720F0A21B63
S1131730B30BE40BF50B661F771F881F991F1A94D0
S113174069F760957095809590959B01AC01BD01FA
S1131750CF0108950E94B50BA59F900DB49F900DE5
S1131760A49F800D911D11240895A29FB001B39FE1
S1131770C001A39F700D811D1124911DB29F700D96
S1131780811D1124911D0895AEE0B0E0EAECFBE068
S11317900C94D40E0D891E8986E08C831A830983E8
S11317A08FEF9FE79E838D83AE01475E5F4F6F8906
S11317B0788DCE0101960E94E60BEF81F885E00F4B
S11317C0F11F10822E96E4E00C94F00EABE0B0E032
S11317D0ECEEFBE00C94C60E6C017B018A01FC016B
S11317E017821682838181FFCCC1CE0101963C0110
S11317F0F6019381F70193FD859193FF81917F0118
S1131800882309F4BAC1853239F493FD859193FF95
S113181081917F01853229F4B60190E00E94DD0DAB
S1131820E7CF912C212C312CFFE1F315D8F08B322A
S113183079F038F4803279F08332A1F4232D2061D9
S11318401DC08D3261F0803369F4232D216016C0F0
S1131850832D8260382EE32DE4603E2E2AC0F32DC2
S1131860F8601DC037FC2DC020ED280F2A3040F051
S11318708E32B9F436FC81C1232D2064322E19C076
S113188036FE06C08AE0989E200D1124922E11C0C7
S1131890EAE02E9E200D1124222EF32DF0623F2E1D
S11318A008C08C3621F4832D8068382E02C0883617
S11318B041F4F70193FD859193FF81917F0181119B
S11318C0B3CF982F9F7D9554933028F40C5F1F4F0E
S11318D09FE399830DC0833631F0833771F08335EC
S11318E009F059C021C0F801808189830E5F1F4F20
S11318F088248394912C530113C02801F2E04F0EE5
S1131900511CF801A080B18036FE03C0692D70E03F
S113191002C06FEF7FEFC5010E94D20D4C0182011E
S1131920F32DFF773F2E16C0280122E0420E511CF2
S1131930F801A080B18036FE03C0692D70E002C0BA
S11319406FEF7FEFC5010E94C70D4C01F32DF068C6
S11319503F2E820133FC1BC0822D90E0881699062D
S1131960B0F4B60180E290E00E94DD0D2A94F4CF39
S1131970F50137FC859137FE81915F01B60190E056
S11319800E94DD0D21102A9421E0821A910881140D
S1131990910471F7E8C0843611F0893641F5F801F5
S11319A037FE07C060817181828193810C5F1F4F74
S11319B008C060817181072E000C880B990B0E5FA3
S11319C01F4FF32DFF763F2E97FF09C0909580950A
S11319D0709561957F4F8F4F9F4FF0683F2E2AE09F
S11319E030E0A3010E94190E882E861845C0853761
S11319F031F4232D2F7EB22E2AE030E025C0932D22
S1131A00997FB92E8F36C1F018F4883579F0B5C0B6
S1131A10803719F0883721F0B0C0E92FE061BE2E7D
S1131A20B4FE0DC0FB2DF460BF2E09C034FE0AC005
S1131A30292F2660B22E06C028E030E005C020E140
S1131A4030E002C020E132E0F801B7FE07C0608157
S1131A507181828193810C5F1F4F06C06081718107
S1131A6080E090E00E5F1F4FA3010E94190E882EA4
S1131A708618FB2DFF773F2E36FE0DC0232D2E7FBB
S1131A80A22E891458F434FE0BC032FC09C0832DF5
S1131A908E7EA82E05C0B82CA32C03C0B82C01C080
S1131AA0B92CA4FE0FC0FE01E80DF11D8081803326
S1131AB021F49A2D997EA92E09C0A2FE06C0B394E2
S1131AC0B39404C08A2D867809F0B394A3FC11C0A2
S1131AD0A0FE06C0B21488F4280C922C9B180EC0E9
S1131AE0B21460F4B60180E290E00E94DD0DB3947C
S1131AF0F7CFB21418F42B1802C0982C212CA4FE92
S1131B0010C0B60180E390E00E94DD0DA2FE17C074
S1131B10A1FC03C088E790E002C088E590E0B6012C
S1131B200CC08A2D867859F0A1FE02C08BE201C058
S1131B3080E2A7FC8DE2B60190E00E94DD0D8914DD
S1131B4038F4B60180E390E00E94DD0D9A94F7CF5B
S1131B508A94F301E80DF11D8081B60190E00E94A2
S1131B60DD0D8110F5CF222009F442CEB60180E2CA
S1131B7090E00E94DD0D2A94F6CFF60186819781CC
S1131B8002C08FEF9FEF2B96E2E10C94E20EFC0172
S1131B900590615070400110D8F7809590958E0F94
S1131BA09F1F0895FC016150704001900110D8F707
S1131BB0809590958E0F9F1F08950F931F93CF9339
S1131BC0DF93FB01238121FD03C08FEF9FEF2CC026
S1131BD022FF16C04681578124813581421753075D
S1131BE044F4A081B1819D012F5F3F4F3183208355
S1131BF08C93268137812F5F3F4F3783268314C010
S1131C008B01EC01FB010084F185E02D0995892B02
S1131C10E1F6D80116968D919C9117970196179627
S1131C209C938E931697CE01DF91CF911F910F91C4
S1131C300895FA01AA27283051F1203181F1E8945E
S1131C406F936E7F6E5F7F4F8F4F9F4FAF4FB1E0AB
S1131C503ED0B4E03CD0670F781F891F9A1FA11DA6
S1131C60680F791F8A1F911DA11D6A0F711D811DA7
S1131C70911DA11D20D009F468943F912AE0269F6C
S1131C8011243019305D3193DEF6CF010895462FCB
S1131C904770405D4193B3E00FD0C9F7F6CF462FAC
S1131CA04F70405D4A3318F0495D31FD4052419315
S1131CB002D0A9F7EACFB4E0A695979587957795D2
S1131CC06795BA95C9F700976105710508959B0159
S1131CD0AC010A2E06945795479537952795BA95E2
S1131CE0C9F7620F731F841F951FA01D0895A6E1F5
S1131CF0B0E044E050E00C94980E0396272F0E9425
S1131D00A70E0E94A60E252F0E94A70E242F0C9426
S1131D10A70E242F0E94B90E252F0E94B90E0C94F1
S1131D20910E0E94B80E272F0C94B90EDC01CB0142
S1131D30FC01F999FECF06C0F2BDE1BDF89A3196D7
S1131D4000B40D9241505040B8F70895262FF999E8
S1131D50FECF92BD81BDF89A019700B4021639F006
S1131D601FBA20BD0FB6F894FA9AF99A0FBE0895D7
S1131D70262FF999FECF1FBA92BD81BD20BD0FB6A3
S1131D80F894FA9AF99A0FBE019608952F923F9209
S1131D904F925F926F927F928F929F92AF92BF9277
S1131DA0CF92DF92EF92FF920F931F93CF93DF9323
S1131DB0CDB7DEB7CA1BDB0B0FB6F894DEBF0FBE80
S1131DC0CDBF09942A88398848885F846E847D84CD
S1131DD08C849B84AA84B984C884DF80EE80FD80CF
S1131DE00C811B81AA81B981CE0FD11D0FB6F89445
S1111DF0DEBF0FBECDBFED010895F894FFCF06
S1131DFE0101000000493D253033754120553D2534
S1131E0E3032755620412A68002530326C753A25D9
S1131E1E3032753A2530326420202530366C750008
S1131E2E2D2D3A2D2D3A2D2D20202530366C750072
S9030000FC
