S00F000049556D657465722E737265635A
S11300000C9434000C9451000C9451000C94510045
S11300100C9451000C9451000C9451000C94510018
S11300200C9451000C9451000C9451000C94510008
S11300300C9451000C9451000C94BB010C9451008D
S11300400C9451000C9451000C9451000C945100E8
S11300500C9451000C94E0010C9451000C94510048
S11300600C9451000C94510011241FBECFEFD8E022
S1130070DEBFCDBF11E0A0E0B1E0EAEDFEE102C0D9
S113008005900D92A037B107D9F721E0A0E7B1E0C0
S113009001C01D92AF3EB207E1F70E94D2090C9451
S11300A06B0F0C940000569857985E9A5F9A549878
S11300B055985C9A5D9A089599B196FB332730F967
S11300C04F99326020917101822F8370381769F043
S11300D044E0249FC0011124932F982B9093710125
S11300E0913E29F081E0923D19F080E008958FEF70
S11300F0089599B194FB332730F94D9932602091DA
S11301007001822F8370381769F044E0249FC00186
S11301101124932F982B90937001913E29F081E044
S1130120923D19F080E008958FEF089594B197609F
S113013094B997B19C6397B92998662311F0289ACA
S113014001C0289898B1937C98B983FD459A82FDA3
S1130150449A81FD439A80FD429A2A9A8AE18A95BB
S1130160F1F700C02A98089594B1976094B9299A38
S1130170882311F0289A01C028982A9A87B1837C91
S113018087B988B18C6388B98AE18A95F1F700C090
S11301902A98359B02C088E001C080E034998460CD
S11301A033998260329981600895CF93DF93C82F89
S11301B00E94B400D82FD295D07F8C2F0E94B40017
S11301C08D2BDF91CF910895CF93DF93C82FD62F36
S11301D082958F700E9496006D2F8C2FDF91CF91A6
S11301E00C94960080E00E94D500880F880B089537
S11301F060E083E00E9496008FE19EE40197F1F7AE
S113020000C0000060E083E00E94960087EB91E06C
S11302100197F1F700C0000060E083E00E949600BF
S11302200E94F2008111FCCF60E082E00E949600FF
S11302300E94F2008111FCCF60E088E20E94E40099
S11302400E94F2008111FCCF60E081E00E94E40092
S11302500E94F2008111FCCF60E086E00E94E4007D
S11302600E94F2008111FCCF60E08CE00C94E40069
S1130270CF93DF93D82FC62F0E94F2008111FCCFB9
S11302808C2F90E4D99F800D112460E080680E9437
S1130290E400C0E00E94F200882311F0C1E0FACF2C
S11302A08C2FDF91CF9108950F931F93CF93DF93FA
S11302B0EC018E018881882359F00E94F20081119B
S11302C0FCCF219661E0F80180810E94E400F1CF27
S11302D0DF91CF911F910F91089582E084BD93E047
S11302E095BD80936E008AEF87BD08952FB7F8946B
S11302F06091720170917301809174019091750104
S11303002FBF0895E4E6F0E080818F7D8083EEE6E0
S1130310F0E080818260808308958FB7F894109212
S113032072011092730110927401109275018FBFC3
S11303300895CF92DF92EF92FF922FB7F894C09076
S11303407201D0907301E0907401F0907501DC01AA
S1130350CB018C0D9D1DAE1DBF1D8093720190932A
S11303607301A0937401B09375012FBFFF90EF90B8
S1130370DF90CF9008951F920F920FB60F92112421
S11303808F939F93AF93BF93809172019091730168
S1130390A0917401B09175010196A11DB11D8093C6
S11303A0720190937301A0937401B0937501BF918E
S11303B0AF919F918F910F900FBE0F901F90189542
S11303C018959DE088E10FB6F894A8958093600095
S11303D00FBE90936000A8952FEF80E792E0215024
S11303E080409040E1F700C000000E94F800A8950A
S11303F01092D9011092DA011092DB011092DC0103
S113040083E090E00E940B0FA0E0B0E08093D9015C
S11304109093DA01A093DB01B093DC0186E090E0D5
S11304200E94030F813019F48093C10105C061E07B
S113043086E090E00E94110F1092E3011092E40113
S11304401092E5011092E6018AE090E00E94030F09
S113045090E0A0E0B0E08093E3019093E401A093E6
S1130460E501B093E6018091D9019091DA01A09160
S1130470DB01B091DC010A97A109B10986339E47DB
S1130480A540B105C0F08AE090E0A0E0B0E0809320
S1130490D9019093DA01A093DB01B093DC0160E011
S11304A070E080E090E00E941F0F6AE070E083E05B
S11304B090E00E941F0F8091E3019091E401A091CC
S11304C0E501B091E60180349244AF40B105C0F03B
S11304D082E390E0A0E0B0E08093E3019093E40134
S11304E0A093E501B093E60160E070E087E090E05E
S11304F00E941F0F64EF71E08AE090E00E941F0FDA
S11305000E946D010E948201259A259A239A2B9AB2
S1130510519A599A509A589A52985A9A24982C9ABD
S113052053985B9A0E9453001092DE0183E08093FB
S1130530DD0183B7817F826083BF83B7816083BF1E
S1130540789408953F924F925F926F927F928F9228
S11305509F92AF92BF92CF92DF92EF92FF920F934E
S11305601F93CF93DF93CDB7DEB7A2970FB6F8945E
S1130570DEBF0FBECDBF8091DD01882309F430C1F9
S11305808091DE0181112CC18091C001C090D901FC
S1130590D090DA01E090DB01F090DC01882361F077
S11305A00E94760128EE33E040E050E00E94140CF3
S11305B0C21AD30AE40AF50AC701B60120E13EE0F3
S11305C040E050E00E94140CB22EA32E942E852EEF
S11305D0A0E1BEE00E94360CC61AD70AE80AF90A5E
S11305E0C701B6012CE330E040E050E00E94140C57
S11305F0632E722E8CE3289FC01811248091BE01B3
S1130600882349F0D090E3015090E4014090E50143
S11306103090E60108C0D090C9015090CA014090C2
S1130620CB013090CC018091D0018F938091CF0188
S11306308F938091CE018F938091CD018F9386E02B
S113064091E09F938F937E0192E1E90EF11CFF925A
S1130650EF920E94500C0FB6F894DEBF0FBECDBFD0
S11306608091BF018E010F5F1F4F8823F1F18091AC
S11306700401909105018130910569F43F924F92F4
S11306805F92DF926F927F928F929F92AF92BF920E
S11306908AE191E00FC08C33910599F43F924F9217
S11306A05F92DF921F92CF928F929F92AF92BF92EE
S11306B08FE291E09F938F931F930F930E94500CAE
S11306C028C080319E4089F43F924F925F92DF921E
S11306D01F92CF926F927F9284E491E09F938F93C5
S11306E01F930F930E94500C14C03F924F925F923D
S11306F0DF921F92CF926F927F928F929F92AF92CE
S1130700BF9288E591E09F938F931F930F930E946C
S1130710500C0FB6F894DEBF0FBECDBF8091BE0162
S11307208823F1F19EE39A878230D1F5809100010C
S113073090910101A0910201B091030184369105C9
S1130740A105B10529F160F481309105A105B10538
S1130750E1F00A97A105B10519F580E28F8720C061
S1130760803127E29207A105B105A9F0803A26E875
S1130770920721E0A207B10589F0883E9340A105C4
S1130780B10571F480E28D870BC080E2888B08C0CC
S113079080E28E8705C080E28C8702C080E28B876E
S11307A01AA2198A60E080E00E943801811105C014
S11307B00E94F80081E08093DD01C7010E9454018A
S11307C060E081E00E943801811105C00E94F800B8
S11307D081E08093DD01C8010E9454011092DD0183
S11307E0A2960FB6F894DEBF0FBECDBFDF91CF91B6
S11307F01F910F91FF90EF90DF90CF90BF90AF903B
S11308009F908F907F906F905F904F903F9008954E
S11308108091C001811121C0809104019091050152
S113082080312EE0920739F481E090E09093050145
S1130830809304010AC04CE3489F9001499F300D06
S11308401124309305012093040181E08093BF01BA
S11308508091DD0180688093DD010895209100017D
S1130860309101014091020150910301203A86E840
S1130870380781E04807510569F481E090E0A0E081
S1130880B0E08093000190930101A0930201B09322
S113089003010CC0AAE0B0E00E94360C6093000192
S11308A070930101809302019093030182E080938D
S11308B0BE011092EB011092EC011092ED01109226
S11308C0EE018091DD0180688093DD0108956091DF
S11308D0D5017091D6018091D7019091D8010E94E1
S11308E0F00A20E030E84CE853E40E94E3090E9457
S11308F0C10A6093D5017093D6018093D701909378
S1130900D8018091D5019091D601A091D701B091E1
S1130910D80180389E43A105B105D8F061E070E0AC
S113092080E090E00E9499018091D5019091D601D8
S1130930A091D701B091D80180589E43A109B10973
S11309408093D5019093D601A093D701B093D80199
S1130950D8CF0895CF93DF9380937C0084EC809369
S11309607A0080917A00886080937A0088958091DB
S11309707A0086FDFBCF80917A00877F80937A008E
S1130980D0917800C09179000E9467048C2F90E088
S1130990982F88278D0F911DDF91CF910895CF92C5
S11309A0DF92EF92FF920F931F938091BF01811109
S11309B005C01092BD011092BC0117C08091BC010A
S11309C09091BD0101969093BD018093BC0180314B
S11309D0974258F01092BF011092BD011092BC01D1
S11309E08091DD0180688093DD018091BE018111D9
S11309F009C01092EB011092EC011092ED011092DB
S1130A00EE0158C08091EB019091EC01A091ED01B1
S1130A10B091EE01AC01BD014F5F5F4F6F4F7F4F4F
S1130A204093EB015093EC016093ED017093EE0160
S1130A308F509742A109B10980379141A140B10576
S1130A4048F481E08093BE018091DD018068809349
S1130A50DD0130C0403858436140710558F11092AF
S1130A60BE0181E090E0A0E0B0E0809300019093AB
S1130A700101A0930201B09303011092EB011092C3
S1130A80EC011092ED011092EE018091DD0180687D
S1130A908093DD016091E3017091E40187E090E0CF
S1130AA00E941F0F6091E3017091E4018AE090E0DD
S1130AB00E941F0F8091C301811105C01092BB01D8
S1130AC01092BA0189C08091BA019091BB0101963C
S1130AD09093BB018093BA018035934C08F47CC099
S1130AE00E947601C090C501D090C601E090C70174
S1130AF0F090C8016C197D098E099F090E94F00AC3
S1130B0020E03AEB4BE55AE40E944F0A6B017C016A
S1130B106091CD017091CE0180E090E00E94F00AD6
S1130B209B01AC01C701B6010E94830B2091B60161
S1130B303091B7014091B8015091B9010E94E30985
S1130B406B017C016093B6017093B7018093B80187
S1130B509093B90120E030E0A9010E947E0B1816A1
S1130B6044F5C701B6010E94C10A0091C901109160
S1130B70CA012091CB013091CC01060F171F281F09
S1130B80391F0093C9011093CA012093CB013093FC
S1130B90CC010E94F00A9B01AC01C701B6010E947E
S1130BA0E2096093B6017093B7018093B801909302
S1130BB0B9010E9476016093C5017093C6018093C8
S1130BC0C7019093C8011092BB011092BA018091A1
S1130BD0DD0180648093DD012091C001211105C0F5
S1130BE01092B5011092B40124C08091B401909187
S1130BF0B5010196883833E1930728F49093B50141
S1130C008093B40116C0223031F0803137E293076B
S1130C10A8F3213099F71092B5011092B401809194
S1130C20C201882319F01092C20103C081E08093AD
S1130C30C2018091E3019091E401A091E501B0919A
S1130C40E6010097A105B10539F12091C3012223E2
S1130C5019F14091C9015091CA016091CB01709181
S1130C60CC01481759076A077B07B0F08091B2019D
S1130C709091B3010196883823E1920728F4909368
S1130C80B3018093B2010EC01092B3011092B2016D
S1130C908091C401882319F01092C40103C081E03B
S1130CA08093C4018091B0019091B1010196909319
S1130CB0B1018093B001883B9B4031F41092B101A3
S1130CC01092B0010E94A2028091D1019091D201B0
S1130CD0A091D301B091D4010097A105B10581F190
S1130CE00196A11DB11D803523EC9207A105B10524
S1130CF049F08093D1019093D201A093D301B09392
S1130D00D4011EC01092D1011092D2011092D301CD
S1130D101092D4016091D9017091DA0180E090E0E1
S1130D200E941F0F6091D9017091DA0183E090E075
S1130D301F910F91FF90EF90DF90CF900C941F0FB5
S1130D401F910F91FF90EF90DF90CF9008950F9334
S1130D501F930E94790090E08130910541F58091C4
S1130D60E3019091E401A091E501B091E6010097BF
S1130D70A105B10509F459C0409100015091010148
S1130D80609102017091030184179507A607B707C4
S1130D9048F41092E3011092E4011092E5011092DC
S1130DA0E60133C0841B950BA60BB70B26C08F3FFF
S1130DB09105D9F54091E3015091E4016091E50179
S1130DC07091E6014F3322E452072FE06207710568
S1130DD060F58091000190910101A0910201B09110
S1130DE00301840F951FA61FB71F803422E49207C6
S1130DF02FE0A207B10508F09AC08093E301909315
S1130E00E401A093E501B093E6018091DD018260E5
S1130E108093DD0181E08093BE011092EB0110927A
S1130E20EC011092ED011092EE018091C00181114C
S1130E307EC00E945C0090E081309105F1F58091C4
S1130E40D9019091DA01A091DB01B091DC018B30E2
S1130E509105A105B10508F46AC0409104015091BF
S1130E60050160E070E08C019D010A50110921091F
S1130E703109041715072607370708F458C0841BDF
S1130E80950BA60BB70B8093D9019093DA01A0932D
S1130E90DB01B093DC018091DD0182608093DD0190
S1130EA081E090E0A0E0B0E08093D1019093D20182
S1130EB0A093D301B093D4013AC08F3F9105B9F503
S1130EC08091D9019091DA01A091DB01B091DC010C
S1130ED08F332EE7920725E0A207B10540F5209154
S1130EE0040130910501820F931FA11DB11D8034AF
S1130EF02EE7920725E0A207B105C8F48093D90133
S1130F009093DA01A093DB01B093DC0181E090E0DF
S1130F10A0E0B0E08093D1019093D201A093D301DB
S1130F20B093D4018091DD0182608093DD011F9133
S1130F300F9108958091C0018130D9F40E94760107
S1130F4028EE33E040E050E00E94140C8091D90177
S1130F509091DA01A091DB01B091DC014E97A109D7
S1130F60B109281739074A075B0718F082E0809314
S1130F70C0018091C0019091C101811105C09923E4
S1130F8029F021E02093C201911102C01092C20104
S1130F90882339F10E94760128EE33E040E050E0E6
S1130FA00E94140C8091D9019091DA01A091DB0187
S1130FB0B091DC01281739074A075B0748F0109203
S1130FC0C0011092C3018091DD0188608093DD012E
S1130FD08091C001882329F08091DD018061809394
S1130FE0DD0108958091C301882319F025982B9A77
S1130FF002C0259A2B988091C401882311F0599A34
S113100001C059988091C201882311F0589A08951B
S113101058980895CF93DF938091AE019091AF01DA
S113102001969093AF018093AE018436910509F047
S113103087C0C091AD01C931D8F1EBE7F1E02DEAE9
S113104031E060E070E0CB0141915191640F751F74
S1131050811D911D2E173F07B9F729E130E040E0CB
S113106050E00E94140C8091CD019091CE01A0E03B
S1131070B0E0821B930BA40BB50B0397A105B1053C
S1131080A0F0273E83E038074105510528F430934A
S1131090CE012093CD0104C01092CE011092CD0157
S11310A08091DD0180618093DD011092AD011EC04D
S11310B081EC90E00E94AA04D0E0CC0FDD1FC5585B
S11310C0DE4FBC01990F880B990B0E94F20A20E0B5
S11310D030E849E850E40E94830B0E94C10A7983F6
S11310E068838091AD018F5F8093AD0180E490E0CF
S11310F00E94AA0429E1AC01249FC001259F900D00
S1131100112497FF02C081509C4F292F25952595C6
S1131110392F330F330B8091CF019091D001821B73
S1131120930B029748F03093D0012093CF01809124
S1131130DD0180618093DD011092AF011092AE0158
S11311400E9476016A3F71058105910588F14A9BE9
S113115007C080917A01882319F010927A0128C07F
S11311604A9926C080917A01811122C0C1E0C093BE
S11311707A010E948D018091C301882369F0109245
S1131180C3011092C0011092C5011092C6011092C1
S1131190C7011092C80107C0C093C3018091C10167
S11311A08111C093C0018091DD0184608093DD01D1
S11311B0DF91CF9108950F931F93CF930E947601EF
S11311C00091DF011091E0012091E1013091E201F1
S11311D0DC01CB01801B910BA20BB30B893E934026
S11311E0A105B10500F1809179018823E1F0109205
S11311F079018091C101882329F01092C1011092D4
S1131200C0010BC0C1E0C093C1018091C301882318
S113121021F00E948D01C093C0016091C10186E05C
S113122090E00E94110F1C9B35C0809178018823A7
S113123089F10E9476010091DF011091E001209173
S1131240E1013091E201DC01CB01801B910BA20B87
S1131250B30B85369105A105B105B8F00E9476015E
S11312600091DF011091E0012091E1013091E20150
S1131270DC01CB01801B910BA20BB30B883E934086
S1131280A105B10510F40E9408041092780110928F
S1131290790115C01C9913C08091780181110FC088
S11312A00E9476016093DF017093E0018093E10175
S11312B09093E20181E080937801809379010E9408
S11312C076010091E7011091E8012091E901309144
S11312D0EA01DC01CB01801B910BA20BB30B893E0D
S11312E09340A105B10570F080917701882351F0F6
S11312F0109277011092C9011092CA011092CB0189
S11313001092CC014B9B35C080917601882389F1E2
S11313100E9476010091E7011091E8012091E90112
S11313203091EA01DC01CB01801B910BA20BB30BC2
S113133085369105A105B105B8F00E9476010091AA
S1131340E7011091E8012091E9013091EA01DC0103
S1131350CB01801B910BA20BB30B883E9340A105DC
S1131360B10510F40E942E041092760110927701B8
S113137015C04B9913C08091760181110FC00E9452
S113138076016093E7017093E8018093E9019093FB
S1131390EA0181E08093760180937701CF911F91D8
S11313A00F9108950E94E101A8950E94A7060E944A
S11313B0DB080E94CF040E940A080E949A070E9438
S11313C0F207F2CF5058BB27AA270E94FA090C94BF
S11313D0440B0E94360B38F00E943D0B20F039F488
S11313E09F3F19F426F40C94330B0EF4E095E7FBBD
S11313F00C942D0BE92F0E94550B58F3BA17620772
S113140073078407950720F079F4A6F50C94770BFD
S11314100EF4E0950B2EBA2FA02D0B01B90190010B
S11314200C01CA01A0011124FF27591B99F0593F4F
S113143050F4503E68F11A16F040A22F232F342F97
S11314404427585FF3CF469537952795A795F040E5
S11314505395C9F77EF41F16BA0B620B730B840BFA
S1131460BAF09150A1F0FF0FBB1F661F771F881FB2
S1131470C2F70EC0BA0F621F731F841F48F487950A
S113148077956795B795F7959E3F08F0B0CF9395FC
S1131490880F08F09927EE0F9795879508950E9475
S11314A0630A0C94440B0E943D0B58F00E94360BC7
S11314B040F029F45F3F29F00C942D0B51110C944A
S11314C0780B0C94330B0E94550B68F39923B1F3FA
S11314D0552391F3951B550BBB27AA276217730756
S11314E0840738F09F5F5F4F220F331F441FAA1FEA
S11314F0A9F335D00E2E3AF0E0E832D091505040A6
S1131500E695001CCAF72BD0FE2F29D0660F771F53
S1131510881FBB1F261737074807AB07B0E809F039
S1131520BB0B802DBF01FF2793585F4F3AF09E3FBE
S1131530510578F00C942D0B0C94780B5F3FE4F379
S1131540983ED4F3869577956795B795F7959F5F01
S1131550C9F7880F911D9695879597F90895E1E04D
S1131560660F771F881FBB1F621773078407BA07AC
S113157020F0621B730B840BBA0BEE1F88F7E09507
S113158008950E945D0B88F09F5798F0B92F992712
S1131590B751B0F0E1F0660F771F881F991F1AF05A
S11315A0BA95C9F714C0B13091F00E94770BB1E03D
S11315B008950C94770B672F782F8827B85F39F03C
S11315C0B93FCCF3869577956795B395D9F73EF4F3
S11315D090958095709561957F4F8F4F9F4F08959B
S11315E0E89409C097FB3EF49095809570956195B9
S11315F07F4F8F4F9F4F9923A9F0F92F96E9BB276F
S11316009395F695879577956795B795F111F8CFEA
S1131610FAF4BB0F11F460FF1BC06F5F7F4F8F4F55
S11316209F4F16C0882311F096E911C0772321F04B
S11316309EE8872F762F05C0662371F096E8862FE3
S113164070E060E02AF09A95660F771F881FDAF73A
S1131650880F9695879597F9089597F99F6780E87D
S113166070E060E008959FEF80EC089500240A94F0
S11316701616170618060906089500240A94121669
S11316801306140605060895092E0394000C11F49C
S1131690882352F0BB0F40F4BF2B11F460FF04C049
S11316A06F5F7F4F8F4F9F4F089557FD9058440FA2
S11316B0551F59F05F3F71F04795880F97FB991FAD
S11316C061F09F3F79F0879508951216130614066A
S11316D0551FF2CF4695F1DF08C0161617061806F7
S11316E0991FF1CF86957105610508940895E894D2
S11316F0BB2766277727CB0197F908950E94F00B43
S113170008F48FEF08950E94960B0C94440B0E94EA
S1131710360B38F00E943D0B20F0952311F00C9409
S11317202D0B0C94330B11240C94780B0E94550B45
S113173070F3959FC1F3950F50E0551F629FF00120
S1131740729FBB27F00DB11D639FAA27F00DB11D39
S1131750AA1F649F6627B00DA11D661F829F2227C2
S1131760B00DA11D621F739FB00DA11D621F839F49
S1131770A00D611D221F749F3327A00D611D231F1F
S1131780849F600D211D822F762F6A2F11249F576D
S113179050409AF0F1F088234AF0EE0FFF1FBB1F70
S11317A0661F771F881F91505040A9F79E3F51052F
S11317B080F00C942D0B0C94780B5F3FE4F3983E6F
S11317C0D4F3869577956795B795F795E7959F5FD9
S11317D0C1F7FE2B880F911D9695879597F908956B
S11317E0990F0008550FAA0BE0E8FEEF161617062E
S11317F0E807F907C0F012161306E407F50798F096
S1131800621B730B840B950B39F40A2661F0232BAE
S1131810242B252B21F408950A2609F4A140A6952A
S11318208FEF811D811D0895A1E21A2EAA1BBB1BF7
S1131830FD010DC0AA1FBB1FEE1FFF1FA217B30798
S1131840E407F50720F0A21BB30BE40BF50B661FAE
S1131850771F881F991F1A9469F760957095809572
S113186090959B01AC01BD01CF0108950E94410CEC
S1131870A59F900DB49F900DA49F800D911D1124E0
S11318800895A29FB001B39FC001A39F700D811D55
S11318901124911DB29F700D811D1124911D089575
S11318A0AEE0B0E0E6E5FCE00C94420F0D891E8941
S11318B086E08C831A8309838FEF9FE79E838D8351
S11318C0AE01475E5F4F6F89788DCE0101960E940D
S11318D0720CEF81F885E00FF11F10822E96E4E080
S11318E00C945E0FABE0B0E0E8E7FCE00C94340F3E
S11318F06C017B018A01FC0117821682838181FFBE
S1131900CCC1CE0101963C01F6019381F70193FD10
S1131910859193FF81917F01882309F4BAC18532AF
S113192039F493FD859193FF81917F01853229F4E8
S1131930B60190E00E94690EE7CF912C212C312C46
S1131940FFE1F315D8F08B3279F038F4803279F076
S11319508332A1F4232D20611DC08D3261F08033C8
S113196069F4232D216016C0832D8260382EE32D67
S1131970E4603E2E2AC0F32DF8601DC037FC2DC054
S113198020ED280F2A3040F08E32B9F436FC81C1A4
S1131990232D2064322E19C036FE06C08AE0989E9C
S11319A0200D1124922E11C0EAE02E9E200D112448
S11319B0222EF32DF0623F2E08C08C3621F4832DA5
S11319C08068382E02C0883641F4F70193FD859172
S11319D093FF81917F018111B3CF982F9F7D9554FF
S11319E0933028F40C5F1F4F9FE399830DC0833617
S11319F031F0833771F0833509F059C021C0F80103
S1131A00808189830E5F1F4F88248394912C530116
S1131A1013C02801F2E04F0E511CF801A080B180E0
S1131A2036FE03C0692D70E002C06FEF7FEFC50181
S1131A300E945E0E4C018201F32DFF773F2E16C0EB
S1131A40280122E0420E511CF801A080B18036FE2C
S1131A5003C0692D70E002C06FEF7FEFC5010E94E3
S1131A60530E4C01F32DF0683F2E820133FC1BC052
S1131A70822D90E088169906B0F4B60180E290E0D9
S1131A800E94690E2A94F4CFF50137FC859137FE44
S1131A9081915F01B60190E00E94690E21102A94A1
S1131AA021E0821A91088114910471F7E8C0843608
S1131AB011F0893641F5F80137FE07C06081718164
S1131AC0828193810C5F1F4F08C060817181072E52
S1131AD0000C880B990B0E5F1F4FF32DFF763F2EE2
S1131AE097FF09C090958095709561957F4F8F4FB2
S1131AF09F4FF0683F2E2AE030E0A3010E94A50E1C
S1131B00882E861845C0853731F4232D2F7EB22EBA
S1131B102AE030E025C0932D997FB92E8F36C1F08D
S1131B2018F4883579F0B5C0803719F0883721F07A
S1131B30B0C0E92FE061BE2EB4FE0DC0FB2DF460F1
S1131B40BF2E09C034FE0AC0292F2660B22E06C05B
S1131B5028E030E005C020E130E002C020E132E0BE
S1131B60F801B7FE07C060817181828193810C5FA7
S1131B701F4F06C06081718180E090E00E5F1F4FAF
S1131B80A3010E94A50E882E8618FB2DFF773F2EF9
S1131B9036FE0DC0232D2E7FA22E891458F434FE58
S1131BA00BC032FC09C0832D8E7EA82E05C0B82C34
S1131BB0A32C03C0B82C01C0B92CA4FE0FC0FE0195
S1131BC0E80DF11D8081803321F49A2D997EA92E90
S1131BD009C0A2FE06C0B394B39404C08A2D8678CB
S1131BE009F0B394A3FC11C0A0FE06C0B21488F49B
S1131BF0280C922C9B180EC0B21460F4B60180E23B
S1131C0090E00E94690EB394F7CFB21418F42B1825
S1131C1002C0982C212CA4FE10C0B60180E390E0F1
S1131C200E94690EA2FE17C0A1FC03C088E790E0E1
S1131C3002C088E590E0B6010CC08A2D867859F080
S1131C40A1FE02C08BE201C080E2A7FC8DE2B601D6
S1131C5090E00E94690E891438F4B60180E390E0A4
S1131C600E94690E9A94F7CF8A94F301E80DF11D4E
S1131C708081B60190E00E94690E8110F5CF222088
S1131C8009F442CEB60180E290E00E94690E2A94E3
S1131C90F6CFF6018681978102C08FEF9FEF2B96D6
S1131CA0E2E10C94500FFC0105906150704001106A
S1131CB0D8F7809590958E0F9F1F0895FC01615071
S1131CC0704001900110D8F7809590958E0F9F1F5A
S1131CD008950F931F93CF93DF93FB01238121FD7D
S1131CE003C08FEF9FEF2CC022FF16C0468157819F
S1131CF0248135814217530744F4A081B1819D01A9
S1131D002F5F3F4F318320838C93268137812F5F50
S1131D103F4F3783268314C08B01EC01FB01008401
S1131D20F185E02D0995892BE1F6D80116968D9160
S1131D309C911797019617969C938E931697CE01B4
S1131D40DF91CF911F910F910895FA01AA272830AE
S1131D5051F1203181F1E8946F936E7F6E5F7F4F74
S1131D608F4F9F4FAF4FB1E03ED0B4E03CD0670FF0
S1131D70781F891F9A1FA11D680F791F8A1F911D43
S1131D80A11D6A0F711D811D911DA11D20D009F493
S1131D9068943F912AE0269F11243019305D3193D5
S1131DA0DEF6CF010895462F4770405D4193B3E0BE
S1131DB00FD0C9F7F6CF462F4F70405D4A3318F065
S1131DC0495D31FD4052419302D0A9F7EACFB4E016
S1131DD0A6959795879577956795BA95C9F70097CE
S1131DE06105710508959B01AC010A2E069457956F
S1131DF0479537952795BA95C9F7620F731F841FC6
S1131E00951FA01D0895F999FECF92BD81BDF89A42
S1131E10992780B50895A8E1B0E042E050E00C9421
S1131E20260F262FF999FECF1FBA92BD81BD20BD82
S1131E300FB6F894FA9AF99A0FBE019608950E9483
S1131E40110F272F0C94120FDC01CB01FC01F9991F
S1131E50FECF06C0F2BDE1BDF89A319600B40D92F2
S1131E6041505040B8F708952F923F924F925F929D
S1131E706F927F928F929F92AF92BF92CF92DF9296
S1131E80EF92FF920F931F93CF93DF93CDB7DEB7FB
S1131E90CA1BDB0B0FB6F894DEBF0FBECDBF09948F
S1131EA02A88398848885F846E847D848C849B84E6
S1131EB0AA84B984C884DF80EE80FD800C811B81F4
S1131EC0AA81B981CE0FD11D0FB6F894DEBF0FBE23
S10D1ED0CDBFED010895F894FFCF93
S1131EDA010000000100493D253033754120553D7C
S1131EEA253032755620412A68002530326C753AFD
S1131EFA253032753A202020202530366C7500258D
S1131F0A30326C753A20203A25303264202025304C
S1131F1A366C750020203A253032753A2530326401
S1131F2A20202530366C75002530326C753A253000
S1131F3A32753A2530326420202530366C7500001B
S9030000FC
