:100000000C9434000C9451000C9451000C94510049
:100010000C9451000C9451000C9451000C9451001C
:100020000C9451000C9451000C9451000C9451000C
:100030000C9451000C9451000C94BB010C94510091
:100040000C9451000C9451000C9451000C945100EC
:100050000C9451000C94E0010C9451000C9451004C
:100060000C9451000C94510011241FBECFEFD8E026
:10007000DEBFCDBF11E0A0E0B1E0E0E0F0E202C001
:1000800005900D92A038B107D9F722E0A0E8B1E0C1
:1000900001C01D92A432B207E1F70E943F0A0C94FE
:1000A000FE0F0C940000569857985E9A5F9A5498E9
:1000B00055985C9A5D9A089599B196FB332730F96B
:1000C0004F99326020918101822F8370381769F037
:1000D00044E0249FC0011124932F982B9093810119
:1000E000913E29F081E0923D19F080E008958FEF74
:1000F000089599B194FB332730F94D9932602091DE
:100100008001822F8370381769F044E0249FC0017A
:100110001124932F982B90938001913E29F081E038
:10012000923D19F080E008958FEF089594B19760A3
:1001300094B997B19C6397B92998662311F0289ACE
:1001400001C0289898B1937C98B983FD459A82FDA7
:10015000449A81FD439A80FD429A2A9A8AE18A95BF
:10016000F1F700C02A98089594B1976094B9299A3C
:10017000882311F0289A01C028982A9A87B1837C95
:1001800087B988B18C6388B98AE18A95F1F700C094
:100190002A98359B02C088E001C080E034998460D1
:1001A00033998260329981600895CF93DF93C82F8D
:1001B0000E94B400D82FD295D07F8C2F0E94B4001B
:1001C0008D2BDF91CF910895CF93DF93C82FD62F3A
:1001D00082958F700E9496006D2F8C2FDF91CF91AA
:1001E0000C94960080E00E94D500880F880B08953B
:1001F00060E083E00E9496008FE19EE40197F1F7B2
:1002000000C0000060E083E00E94960087EB91E070
:100210000197F1F700C0000060E083E00E949600C3
:100220000E94F2008111FCCF60E082E00E94960003
:100230000E94F2008111FCCF60E088E20E94E4009D
:100240000E94F2008111FCCF60E081E00E94E40096
:100250000E94F2008111FCCF60E086E00E94E40081
:100260000E94F2008111FCCF60E08CE00C94E4006D
:10027000CF93DF93D82FC62F0E94F2008111FCCFBD
:100280008C2F90E4D99F800D112460E080680E943B
:10029000E400C0E00E94F200882311F0C1E0FACF30
:1002A0008C2FDF91CF9108950F931F93CF93DF93FE
:1002B000EC018E018881882359F00E94F20081119F
:1002C000FCCF219661E0F80180810E94E400F1CF2B
:1002D000DF91CF911F910F91089582E084BD93E04B
:1002E00095BD80936E008AEF87BD08952FB7F8946F
:1002F00060918201709183018091840190918501C8
:100300002FBF0895E4E6F0E080818F7D8083EEE6E4
:10031000F0E080818260808308958FB7F894109216
:1003200082011092830110928401109285018FBF87
:100330000895CF92DF92EF92FF922FB7F894C0907A
:100340008201D0908301E0908401F0908501DC016E
:10035000CB018C0D9D1DAE1DBF1D8093820190931E
:100360008301A0938401B09385012FBFFF90EF908C
:10037000DF90CF9008951F920F920FB60F92112425
:100380008F939F93AF93BF9380918201909183014C
:10039000A0918401B09185010196A11DB11D8093AA
:1003A000820190938301A0938401B0938501BF9152
:1003B000AF919F918F910F900FBE0F901F90189546
:1003C00018959DE088E10FB6F894A8958093600099
:1003D0000FBE90936000A8952FEF80E792E0215028
:1003E00080409040E1F700C000000E94F800A8950E
:1003F00080E090E00E94780F60930E0270930F02ED
:10040000809310029093110286E090E00E94700F9A
:10041000813019F48093F40105C061E086E090E03A
:100420000E949C0F87E090E00E94780F6093180272
:100430007093190280931A0290931B0280910E020E
:1004400090910F02A0911002B09111020A97A10998
:10045000B10986339E47A540B105A0F08AE090E03F
:10046000A0E0B0E080930E0290930F02A0931002E0
:10047000B09311024AE050E060E070E080E090E06C
:100480000E94AA0F8091180290911902A0911A025D
:10049000B0911B0280349244AF40B105A0F082E3DA
:1004A00090E0A0E0B0E08093180290931902A0932E
:1004B0001A02B0931B0244EF51E060E070E087E065
:1004C00090E00E94AA0F0E946D010E948201259A6D
:1004D0002D98399A419A389A409A239A2B9A519A90
:1004E000599A509A589A52985A9A24982C9A5398F2
:1004F0005B9A0E9453001092130283E080931202D1
:1005000083B7817F826083BF83B7816083BF789424
:1005100008952F923F924F925F926F927F928F92A7
:100520009F92AF92BF92CF92DF92EF92FF920F9382
:100530001F93CF93DF93CDB7DEB7A2970FB6F89492
:10054000DEBF0FBECDBF80911202882309F448C1DF
:1005500080911302811144C18091F101882349F0F7
:10056000D0901802C0901902B0901A02A0901B02FD
:1005700008C0D090FD01C090FE01B090FF01A09096
:100580000002809104028F93809103028F938091E7
:1005900002028F93809101028F9386E091E09F93F6
:1005A0008F937E0122E1E20EF11CFF92EF920E94F6
:1005B000BD0C0FB6F894DEBF0FBECDBF8091F40125
:1005C0008E010F5F1F4F882309F497C08091F301BC
:1005D00040900E0250900F02609010027090110235
:1005E000882379F00E94760128EE33E040E050E065
:1005F0000E94810C12012301221A330A440A550A6F
:1006000002C012012301C201B10120E13EE040E03D
:1006100050E00E94810C922E832E742E652EA0E154
:10062000BEE00E94A30C261A370A480A590AC201E2
:10063000B1012CE330E040E050E00E94810C822FB9
:10064000922F622D4CE3249F601911242091F20116
:100650002223F1F1409104015091050141305105EF
:1006600069F4AF92BF92CF92DF923F938F936F92D4
:100670007F928F929F928AE191E00FC04C33510597
:1006800099F4AF92BF92CF92DF921F926F936F92C5
:100690007F928F929F928FE291E09F938F931F930F
:1006A0000F930E94BD0C35C040315E4089F4AF927B
:1006B000BF92CF92DF921F926F933F938F9384E408
:1006C00091E09F938F931F930F930E94BD0C21C0C5
:1006D000AF92BF92CF92DF921F926F933F939F93FF
:1006E0006F927F928F929F9288E591E09F938F9374
:1006F0001F930F930E94BD0C0CC0AF92BF92CF927C
:10070000DF928FE691E09F938F931F930F930E9448
:10071000BD0C0FB6F894DEBF0FBECDBF8091F101C6
:100720008823F1F19EE39A878230D1F58091000110
:1007300090910101A0910201B091030184369105CD
:10074000A105B10529F160F481309105A105B1053C
:10075000E1F00A97A105B10519F580E28F8720C065
:10076000803127E29207A105B105A9F0803A46E859
:10077000940741E0A407B10589F0883E9340A105A4
:10078000B10571F480E28D870BC080E2888B08C0D0
:1007900080E28E8705C080E28C8702C080E28B8772
:1007A0001AA2198A60E080E00E943801811105C018
:1007B0000E94F80081E080931202C7010E94540158
:1007C00060E081E00E943801811105C00E94F800BC
:1007D00081E080931202C8010E945401109212021B
:1007E000A2960FB6F894DEBF0FBECDBFDF91CF91BA
:1007F0001F910F91FF90EF90DF90CF90BF90AF903F
:100800009F908F907F906F905F904F903F902F9030
:1008100008958091F301811121C08091040190918C
:10082000050180312EE0920739F481E090E0909349
:100830000501809304010AC04CE3489F9001499F41
:10084000300D1124309305012093040181E0809341
:10085000F201809112028068809312020895209123
:100860000001309101014091020150910301203AB1
:1008700086E8380781E04807510569F481E090E097
:10088000A0E0B0E08093000190930101A0930201E9
:10089000B09303010CC0AAE0B0E00E94A30C6093E7
:1008A0000001709301018093020190930301109263
:1008B00020021092210210922202109223028091B3
:1008C0001202806880931202089560910A0270916A
:1008D0000B0280910C0290910D020E945D0B20E0B2
:1008E00030E84CE853E40E94500A0E942E0B6093BB
:1008F0000A0270930B0280930C0290930D02809178
:100900000A0290910B02A0910C02B0910D02803866
:100910009E43A105B105D8F061E070E080E090E071
:100920000E94990180910A0290910B02A0910C0201
:10093000B0910D0280589E43A109B10980930A022B
:1009400090930B02A0930C02B0930D02D8CF0895A0
:10095000CF93DF9380937C0084EC80937A00809126
:100960007A00886080937A00889580917A0086FD6D
:10097000FBCF80917A00877F80937A00D0917800B6
:10098000C09179000E9465048C2F90E0982F8827F1
:100990008D0F911DDF91CF910895CF92DF92EF924D
:1009A000FF920F931F938091F201811105C0109265
:1009B000F0011092EF0117C08091EF019091F001CA
:1009C00001969093F0018093EF018031974258F0A7
:1009D0001092F2011092F0011092EF018091120238
:1009E0008068809312028091F101811109C01092F8
:1009F000200210922102109222021092230254C06F
:100A00008091200290912102A0912202B0912302B4
:100A1000AC01BD014F5F5F4F6F4F7F4F409320028E
:100A20005093210260932202709323028F509742C9
:100A3000A109B10980379141A140B10548F481E095
:100A40008093F101809112028068809312022CC081
:100A5000403858436140710538F11092F10181E04E
:100A600090E0A0E0B0E08093000190930101A0939A
:100A70000201B09303011092200210922102109201
:100A80002202109223028091120280688093120247
:100A9000409118025091190260911A0270911B0244
:100AA00087E090E00E94900F8091F701811105C0CE
:100AB0001092EE011092ED0189C08091ED019091AC
:100AC000EE0101969093EE018093ED018035934CF9
:100AD00008F47CC00E947601C090F901D090FA0120
:100AE000E090FB01F090FC016C197D098E099F09D3
:100AF0000E945D0B20E03AEB4BE55AE40E94BC0AF1
:100B00006B017C01609101027091020280E090E033
:100B10000E945D0B9B01AC01C701B6010E94F00B66
:100B20002091E9013091EA014091EB015091EC01F3
:100B30000E94500A6B017C016093E9017093EA0105
:100B40008093EB019093EC0120E030E0A9010E943A
:100B5000EB0B181644F5C701B6010E942E0B00914D
:100B6000FD011091FE012091FF0130910002060F5E
:100B7000171F281F391F0093FD011093FE012093BA
:100B8000FF01309300020E945D0B9B01AC01C70185
:100B9000B6010E944F0A6093E9017093EA018093C5
:100BA000EB019093EC010E9476016093F901709340
:100BB000FA018093FB019093FC011092EE011092D8
:100BC000ED01809112028064809312022091F30162
:100BD000211105C01092E8011092E70124C0809114
:100BE000E7019091E8010196883833E1930728F4F2
:100BF0009093E8018093E70116C0223031F08031F4
:100C000037E29307A8F3213099F71092E801109288
:100C1000E7018091F501882319F01092F50103C0D6
:100C200081E08093F5018091180290911902A091C2
:100C30001A02B0911B020097A105B10539F120916C
:100C4000F701222319F14091FD015091FE016091BD
:100C5000FF0170910002481759076A077B07B0F03F
:100C60008091E5019091E6010196883823E1920791
:100C700028F49093E6018093E5010EC01092E601FE
:100C80001092E5018091F801882319F01092F80183
:100C900003C081E08093F8018091E3019091E40129
:100CA00001969093E4018093E301883B9B4031F4EB
:100CB0001092E4011092E3010E94890280910602E1
:100CC00090910702A0910802B09109020097A10536
:100CD000B10561F10196A11DB11D803523EC92078C
:100CE000A105B10549F08093060290930702A093F5
:100CF0000802B09309021AC010920602109207026D
:100D000010920802109209028091050280FF0CC027
:100D100040910E0250910F026091100270911102E9
:100D200080E090E00E94900F109205021F910F91B9
:100D3000FF90EF90DF90CF9008950F931F930E9444
:100D4000790090E08130910541F5809118029091F1
:100D50001902A0911A02B0911B020097A105B105DA
:100D600009F459C0409100015091010160910201C4
:100D70007091030184179507A607B70748F41092EE
:100D800018021092190210921A0210921B0233C01C
:100D9000841B950BA60BB70B26C08F3F9105D9F589
:100DA000409118025091190260911A0270911B0231
:100DB0004F3322E452072FE06207710560F58091FE
:100DC000000190910101A0910201B0910301840FF3
:100DD000951FA61FB71F803422E492072FE0A207B9
:100DE000B10508F0A5C08093180290931902A09352
:100DF0001A02B0931B028091120282608093120249
:100E000081E08093F1011092200210922102109251
:100E10002202109223028091F301811189C00E9465
:100E20005C0090E08130910509F043C080910E0292
:100E300090910F02A0911002B09111028B30910598
:100E4000A105B10508F474C0409104015091050159
:100E500060E070E08C019D010A50110921093109FF
:100E6000041715072607370708F462C0841B950B83
:100E7000A60BB70B80930E0290930F02A093100263
:100E8000B0931102809112028260809312028091CD
:100E9000050281608093050281E090E0A0E0B0E06F
:100EA0008093060290930702A0930802B093090270
:100EB0003FC08F3F9105E1F580910E0290910F02A6
:100EC000A0911002B09111028F332EE7920725E016
:100ED000A207B10568F52091040130910501820F48
:100EE000931FA11DB11D80342EE7920725E0A207B4
:100EF000B105F0F480930E0290930F02A0931002BC
:100F0000B093110281E090E0A0E0B0E0809306028F
:100F100090930702A0930802B09309028091050202
:100F20008160809305028091120282608093120298
:100F30001F910F9108958091F3018130D9F40E949F
:100F4000760128EE33E040E050E00E94810C809171
:100F50000E0290910F02A0911002B09111024E97D3
:100F6000A109B109281739074A075B0718F082E081
:100F70008093F3018091F3019091F401811105C0F8
:100F8000992329F021E02093F501911102C01092DC
:100F9000F5018823F1F00E94760128EE33E040E06D
:100FA00050E00E94810C80910E0290910F02A0915E
:100FB0001002B0911102281739074A075B0748F061
:100FC0001092F3011092F7018091120288608093D1
:100FD00012028091F701882321F081E08093F601CD
:100FE00002C01092F6018091F301882329F08091CC
:100FF000120280618093120208958091F601882385
:1010000019F02D982B9A02C02D9A2B988091F801F7
:10101000882311F0599A01C059988091F5018823CD
:1010200011F0589A0895589808950F931F93CF93ED
:101030008091E1019091E20101969093E201809309
:10104000E101883C910509F085C08091F601882373
:1010500009F478C0C091E001C83208F45BC0E0E94F
:10106000F1E080E090E00196DF019C0160817181F8
:1010700012964D915C9113974617570730F41396CB
:101080007C936E931297518340832F5F3F4F12964C
:101090002832310559F732968732910521F7809130
:1010A000030290910402892B09F18091B80190917B
:1010B000B901A0E0B0E08A309105A105B105C8F002
:1010C000409101025091020260E070E0481B590B10
:1010D0006A0B7B0B4330510561057105C0F0873EFB
:1010E00023E09207A105B10548F403C080E090E039
:1010F000DC01909302028093010204C0109202026C
:10110000109201028091120280618093120210926B
:10111000E0011CC086E490E00E94A804EC2FF0E0FF
:10112000EE0FFF1FE057FE4F97FD039695958795AD
:1011300095958795918380838091E0018F5F80935F
:10114000E00104C010920202109201021092E2012A
:101150001092E1018091E1019091E20184369105C4
:1011600061F587E490E00E94A804BC01990F880B08
:10117000990B0E945F0B2AE037ED43E251E40E9495
:10118000BC0A0E942E0B2091030230910402261B00
:10119000370B2230310588F06230710528F4109247
:1011A00004021092030204C07093040260930302CD
:1011B000809112028061809312020E947601009158
:1011C0008C0110918D0120918E0130918F01DC01F5
:1011D000CB01801B910BA20BB30B85369105A105AA
:1011E000B10530F180918B01882311F110928B01B0
:1011F0000E948D011092F9011092FA011092FB01E8
:101200001092FC018091F701882329F01092F701D8
:101210001092F30108C081E08093F7019091F401EE
:1012200091118093F30180911202846080931202E5
:101230004A9B09C080918A01882329F010928A0173
:1012400010928B0115C04A9913C080918A018111B7
:101250000FC00E94760160938C0170938D01809382
:101260008E0190938F0181E080938A0180938B019E
:10127000CF911F910F9108958F929F92AF92BF923D
:10128000CF92DF92EF92FF92CF930E947601C090AF
:101290001402D0901502E0901602F09017024B0154
:1012A0005C018C189D08AE08BF080E947601C090B2
:1012B0001C02D0901D02E0901E02F0901F029B01C4
:1012C000AC012C193D094E095F0969017A0139EE1B
:1012D000831633E09306A104B104D0F18091890113
:1012E0008823B1F11092890145E6C416D104E104C6
:1012F000F10420F08091880181119FC09091F40148
:1013000080911202992341F01092F4018061809340
:1013100012021092F30116C0C1E0C093F401806183
:10132000809312028091F701882361F00E948D0161
:101330001092F9011092FA011092FB011092FC0137
:10134000C093F3016091F40186E090E00E947E0F6B
:101350001C9B16C080918701882391F0D501C401A0
:1013600085569109A109B10983389340A105B105BA
:1013700010F40E940904109287011092890115C08F
:101380001C9913C08091870181110FC00E947601C2
:1013900060931402709315028093160290931702C3
:1013A00081E0809387018093890189EEC81683E0EC
:1013B000D806E104F104D8F0809188018823B9F0BF
:1013C0001092880125E682169104A104B10438F038
:1013D00080918901882319F01092890146C01092EA
:1013E000FD011092FE011092FF01109200024B9B32
:1013F00027C080918601882319F135E6C31AD108E8
:10140000E108F10843E8C41643E0D406E104F1041E
:1014100090F48091F101811109C081E08093F10184
:101420008091120280688093120205C082E080934E
:10143000F1010E942F04109286011092880115C0BC
:101440004B9913C08091860181110FC00E947601D3
:1014500060931C0270931D0280931E0290931F02E2
:1014600081E08093860180938801CF91FF90EF9077
:10147000DF90CF90BF90AF909F908F9008950E9483
:10148000E101A8950E949D060E943C090E94CD049E
:101490000E9415080E949B070E94FD07F2CF50583A
:1014A000BB27AA270E94670A0C94B10B0E94A30BCA
:1014B00038F00E94AA0B20F039F49F3F19F426F46B
:1014C0000C94A00B0EF4E095E7FB0C949A0BE92F1B
:1014D0000E94C20B58F3BA17620773078407950777
:1014E00020F079F4A6F50C94E40B0EF4E0950B2EA5
:1014F000BA2FA02D0B01B90190010C01CA01A00166
:101500001124FF27591B99F0593F50F4503E68F1C0
:101510001A16F040A22F232F342F4427585FF3CF01
:10152000469537952795A795F0405395C9F77EF4D2
:101530001F16BA0B620B730B840BBAF09150A1F01B
:10154000FF0FBB1F661F771F881FC2F70EC0BA0FA1
:10155000621F731F841F48F4879577956795B79529
:10156000F7959E3F08F0B0CF9395880F08F0992724
:10157000EE0F9795879508950E94D00A0C94B10BB1
:101580000E94AA0B58F00E94A30B40F029F45F3F81
:1015900029F00C949A0B51110C94E50B0C94A00BB0
:1015A0000E94C20B68F39923B1F3552391F3951B65
:1015B000550BBB27AA2762177307840738F09F5F74
:1015C0005F4F220F331F441FAA1FA9F335D00E2EE1
:1015D0003AF0E0E832D091505040E695001CCAF74E
:1015E0002BD0FE2F29D0660F771F881FBB1F261711
:1015F00037074807AB07B0E809F0BB0B802DBF01E8
:10160000FF2793585F4F3AF09E3F510578F00C94B6
:101610009A0B0C94E50B5F3FE4F3983ED4F3869568
:1016200077956795B795F7959F5FC9F7880F911DD7
:101630009695879597F90895E1E0660F771F881FC3
:10164000BB1F621773078407BA0720F0621B730B76
:10165000840BBA0BEE1F88F7E09508950E94CA0B21
:1016600088F09F5798F0B92F9927B751B0F0E1F063
:10167000660F771F881F991F1AF0BA95C9F714C013
:10168000B13091F00E94E40BB1E008950C94E40BAA
:10169000672F782F8827B85F39F0B93FCCF386954C
:1016A00077956795B395D9F73EF4909580957095A9
:1016B00061957F4F8F4F9F4F0895E89409C097FB26
:1016C0003EF490958095709561957F4F8F4F9F4F19
:1016D0009923A9F0F92F96E9BB279395F69587955D
:1016E00077956795B795F111F8CFFAF4BB0F11F420
:1016F00060FF1BC06F5F7F4F8F4F9F4F16C08823C7
:1017000011F096E911C0772321F09EE8872F762FFC
:1017100005C0662371F096E8862F70E060E02AF03D
:101720009A95660F771F881FDAF7880F9695879529
:1017300097F9089597F99F6780E870E060E0089551
:101740009FEF80EC089500240A94161617061806D9
:101750000906089500240A941216130614060506B5
:101760000895092E0394000C11F4882352F0BB0F46
:1017700040F4BF2B11F460FF04C06F5F7F4F8F4FA9
:101780009F4F089557FD9058440F551F59F05F3FE4
:1017900071F04795880F97FB991F61F09F3F79F093
:1017A00087950895121613061406551FF2CF469515
:1017B000F1DF08C0161617061806991FF1CF869597
:1017C0007105610508940895E894BB27662777277B
:1017D000CB0197F908950E945D0C08F48FEF0895EE
:1017E0000E94030C0C94B10B0E94A30B38F00E94D2
:1017F000AA0B20F0952311F00C949A0B0C94A00BDB
:1018000011240C94E50B0E94C20B70F3959FC1F359
:10181000950F50E0551F629FF001729FBB27F00D9E
:10182000B11D639FAA27F00DB11DAA1F649F6627F3
:10183000B00DA11D661F829F2227B00DA11D621F42
:10184000739FB00DA11D621F839FA00D611D221FFC
:10185000749F3327A00D611D231F849F600D211DE0
:10186000822F762F6A2F11249F5750409AF0F1F063
:1018700088234AF0EE0FFF1FBB1F661F771F881FCC
:1018800091505040A9F79E3F510580F00C949A0B5F
:101890000C94E50B5F3FE4F3983ED4F3869577957F
:1018A0006795B795F795E7959F5FC1F7FE2B880F72
:1018B000911D9695879597F90895990F0008550FF2
:1018C000AA0BE0E8FEEF16161706E807F907C0F0C6
:1018D00012161306E407F50798F0621B730B840BCE
:1018E000950B39F40A2661F0232B242B252B21F4A8
:1018F00008950A2609F4A140A6958FEF811D811D48
:101900000895A1E21A2EAA1BBB1BFD010DC0AA1F40
:10191000BB1FEE1FFF1FA217B307E407F50720F058
:10192000A21BB30BE40BF50B661F771F881F991FD3
:101930001A9469F760957095809590959B01AC011C
:10194000BD01CF0108950E94AE0CA59F900DB49FDC
:10195000900DA49F800D911D11240895A29FB001A8
:10196000B39FC001A39F700D811D1124911DB29FD3
:10197000700D811D1124911D0895AEE0B0E0E3ECDF
:10198000FCE00C94D50F0D891E8986E08C831A83A8
:1019900009838FEF9FE79E838D83AE01475E5F4F84
:1019A0006F89788DCE0101960E94DF0CEF81F8855A
:1019B000E00FF11F10822E96E4E00C94F10FABE0E3
:1019C000B0E0E5EEFCE00C94C70F6C017B018A01EE
:1019D000FC0117821682838181FFCCC1CE01019662
:1019E0003C01F6019381F70193FD859193FF81916D
:1019F0007F01882309F4BAC1853239F493FD8591BA
:101A000093FF81917F01853229F4B60190E00E9415
:101A1000D60EE7CF912C212C312CFFE1F315D8F015
:101A20008B3279F038F4803279F08332A1F4232DAF
:101A300020611DC08D3261F0803369F4232D216057
:101A400016C0832D8260382EE32DE4603E2E2AC01E
:101A5000F32DF8601DC037FC2DC020ED280F2A3073
:101A600040F08E32B9F436FC81C1232D2064322E31
:101A700019C036FE06C08AE0989E200D1124922ED1
:101A800011C0EAE02E9E200D1124222EF32DF062CB
:101A90003F2E08C08C3621F4832D8068382E02C07A
:101AA000883641F4F70193FD859193FF81917F0181
:101AB0008111B3CF982F9F7D9554933028F40C5FFC
:101AC0001F4F9FE399830DC0833631F0833771F048
:101AD000833509F059C021C0F801808189830E5FE8
:101AE0001F4F88248394912C530113C02801F2E0E6
:101AF0004F0E511CF801A080B18036FE03C0692D45
:101B000070E002C06FEF7FEFC5010E94CB0E4C0169
:101B10008201F32DFF773F2E16C0280122E0420EEE
:101B2000511CF801A080B18036FE03C0692D70E021
:101B300002C06FEF7FEFC5010E94C00E4C01F32D74
:101B4000F0683F2E820133FC1BC0822D90E0881686
:101B50009906B0F4B60180E290E00E94D60E2A9475
:101B6000F4CFF50137FC859137FE81915F01B60115
:101B700090E00E94D60E21102A9421E0821A91084A
:101B80008114910471F7E8C0843611F0893641F56B
:101B9000F80137FE07C060817181828193810C5FFB
:101BA0001F4F08C060817181072E000C880B990BB4
:101BB0000E5F1F4FF32DFF763F2E97FF09C09095C4
:101BC0008095709561957F4F8F4F9F4FF0683F2EA6
:101BD0002AE030E0A3010E94120F882E861845C02B
:101BE000853731F4232D2F7EB22E2AE030E025C038
:101BF000932D997FB92E8F36C1F018F4883579F07E
:101C0000B5C0803719F0883721F0B0C0E92FE06106
:101C1000BE2EB4FE0DC0FB2DF460BF2E09C034FEF5
:101C20000AC0292F2660B22E06C028E030E005C089
:101C300020E130E002C020E132E0F801B7FE07C049
:101C400060817181828193810C5F1F4F06C060812A
:101C5000718180E090E00E5F1F4FA3010E94120F80
:101C6000882E8618FB2DFF773F2E36FE0DC0232DC4
:101C70002E7FA22E891458F434FE0BC032FC09C00A
:101C8000832D8E7EA82E05C0B82CA32C03C0B82CA3
:101C900001C0B92CA4FE0FC0FE01E80DF11D80812A
:101CA000803321F49A2D997EA92E09C0A2FE06C088
:101CB000B394B39404C08A2D867809F0B394A3FC3E
:101CC00011C0A0FE06C0B21488F4280C922C9B18F8
:101CD0000EC0B21460F4B60180E290E00E94D60E0D
:101CE000B394F7CFB21418F42B1802C0982C212CFF
:101CF000A4FE10C0B60180E390E00E94D60EA2FEC2
:101D000017C0A1FC03C088E790E002C088E590E01E
:101D1000B6010CC08A2D867859F0A1FE02C08BE274
:101D200001C080E2A7FC8DE2B60190E00E94D60ED1
:101D3000891438F4B60180E390E00E94D60E9A949C
:101D4000F7CF8A94F301E80DF11D8081B60190E090
:101D50000E94D60E8110F5CF222009F442CEB601A2
:101D600080E290E00E94D60E2A94F6CFF60186819A
:101D7000978102C08FEF9FEF2B96E2E10C94E30F67
:101D8000FC010590615070400110D8F78095909546
:101D90008E0F9F1F0895FC0161507040019001104B
:101DA000D8F7809590958E0F9F1F08950F931F93DE
:101DB000CF93DF93FB01238121FD03C08FEF9FEFC2
:101DC0002CC022FF16C046815781248135814217DD
:101DD000530744F4A081B1819D012F5F3F4F3183B0
:101DE00020838C93268137812F5F3F4F3783268353
:101DF00014C08B01EC01FB010084F185E02D0995F5
:101E0000892BE1F6D80116968D919C911797019632
:101E100017969C938E931697CE01DF91CF911F91C9
:101E20000F910895FA01AA27283051F1203181F14C
:101E3000E8946F936E7F6E5F7F4F8F4F9F4FAF4FD2
:101E4000B1E03ED0B4E03CD0670F781F891F9A1FE5
:101E5000A11D680F791F8A1F911DA11D6A0F711D99
:101E6000811D911DA11D20D009F468943F912AE0A5
:101E7000269F11243019305D3193DEF6CF0108958D
:101E8000462F4770405D4193B3E00FD0C9F7F6CFBE
:101E9000462F4F70405D4A3318F0495D31FD405286
:101EA000419302D0A9F7EACFB4E0A695979587951C
:101EB00077956795BA95C9F70097610571050895FB
:101EC0009B01AC010A2E06945795479537952795A7
:101ED000BA95C9F7620F731F841F951FA01D08953F
:101EE000F999FECF92BD81BDF89A992780B50895E2
:101EF000A6E1B0E044E050E00C94B90F262FF99928
:101F0000FECF92BD81BDF89A019700B4021639F058
:101F10001FBA20BD0FB6F894FA9AF99A0FBE089529
:101F20000396272F0E947F0F0E947E0F252F0E946D
:101F30007F0F242F0C947F0F262FF999FECF1FBA05
:101F400092BD81BD20BD0FB6F894FA9AF99A0FBEE2
:101F500001960895242F0E949D0F252F0E949D0F0A
:101F60000C94B20F0E949C0F272F0C949D0FDC0144
:101F7000CB01FC01F999FECF06C0F2BDE1BDF89A94
:101F8000319600B40D9241505040B8F708952F9209
:101F90003F924F925F926F927F928F929F92AF92F9
:101FA000BF92CF92DF92EF92FF920F931F93CF9346
:101FB000DF93CDB7DEB7CA1BDB0B0FB6F894DEBFDD
:101FC0000FBECDBF09942A88398848885F846E8403
:101FD0007D848C849B84AA84B984C884DF80EE804D
:101FE000FD800C811B81AA81B981CE0FD11D0FB656
:101FF000F894DEBF0FBECDBFED010895F894FFCF7A
:10200000010000000100493D253033754120553D58
:10201000253032755620412A68002530326C753AD9
:10202000253032753A202020202530366C75002569
:1020300030326C753A20203A253032642020253029
:10204000366C750020203A253032753A25303264DE
:1020500020202530366C75002530326C753A2530DD
:1020600032753A2530326420202530366C75002DCB
:102070002D3A2D2D3A2D2D20202530366C7500005F
:00000001FF
