S00F000049556D657465722E737265635A
S11300000C9434000C9451000C9451000C94510045
S11300100C9451000C9451000C9451000C94510018
S11300200C9451000C9451000C9451000C94510008
S11300300C9451000C9451000C94BB010C9451008D
S11300400C9451000C9451000C9451000C945100E8
S11300500C9451000C94E0010C9451000C94510048
S11300600C9451000C94510011241FBECFEFD8E022
S1130070DEBFCDBF11E0A0E0B1E0E8E0F0E202C0F5
S113008005900D92AC37B107D9F722E0ACE7B1E0A7
S113009001C01D92A132B207E1F70E94430A0C94F9
S11300A002100C940000569857985E9A5F9A5498E0
S11300B055985C9A5D9A089599B196FB332730F967
S11300C04F99326020917D01822F8370381769F037
S11300D044E0249FC0011124932F982B90937D0119
S11300E0913E29F081E0923D19F080E008958FEF70
S11300F0089599B194FB332730F94D9932602091DA
S11301007C01822F8370381769F044E0249FC0017A
S11301101124932F982B90937C01913E29F081E038
S1130120923D19F080E008958FEF089594B197609F
S113013094B997B19C6397B92998662311F0289ACA
S113014001C0289898B1937C98B983FD459A82FDA3
S1130150449A81FD439A80FD429A2A9A8AE18A95BB
S1130160F1F700C02A98089594B1976094B9299A38
S1130170882311F0289A01C028982A9A87B1837C91
S113018087B988B18C6388B98AE18A95F1F700C090
S11301902A98359B02C088E001C080E034998460CD
S11301A033998260329981600895CF93DF93C82F89
S11301B00E94B400D82FD295D07F8C2F0E94B40017
S11301C08D2BDF91CF910895CF93DF93C82FD62F36
S11301D082958F700E9496006D2F8C2FDF91CF91A6
S11301E00C94960080E00E94D500880F880B089537
S11301F060E083E00E9496008FE19EE40197F1F7AE
S113020000C0000060E083E00E94960087EB91E06C
S11302100197F1F700C0000060E083E00E949600BF
S11302200E94F2008111FCCF60E082E00E949600FF
S11302300E94F2008111FCCF60E088E20E94E40099
S11302400E94F2008111FCCF60E081E00E94E40092
S11302500E94F2008111FCCF60E086E00E94E4007D
S11302600E94F2008111FCCF60E08CE00C94E40069
S1130270CF93DF93D82FC62F0E94F2008111FCCFB9
S11302808C2F90E4D99F800D112460E080680E9437
S1130290E400C0E00E94F200882311F0C1E0FACF2C
S11302A08C2FDF91CF9108950F931F93CF93DF93FA
S11302B0EC018E018881882359F00E94F20081119B
S11302C0FCCF219661E0F80180810E94E400F1CF27
S11302D0DF91CF911F910F91089582E084BD93E047
S11302E095BD80936E008AEF87BD08952FB7F8946B
S11302F060917E0170917F018091800190918101D4
S11303002FBF0895E4E6F0E080818F7D8083EEE6E0
S1130310F0E080818260808308958FB7F894109212
S11303207E0110927F0110928001109281018FBF93
S11303300895CF92DF92EF92FF922FB7F894C09076
S11303407E01D0907F01E0908001F0908101DC017A
S1130350CB018C0D9D1DAE1DBF1D80937E0190931E
S11303607F01A0938001B09381012FBFFF90EF9094
S1130370DF90CF9008951F920F920FB60F92112421
S11303808F939F93AF93BF9380917E0190917F0150
S1130390A0918001B09181010196A11DB11D8093AE
S11303A07E0190937F01A0938001B0938101BF915E
S11303B0AF919F918F910F900FBE0F901F90189542
S11303C018959DE088E10FB6F894A8958093600095
S11303D00FBE90936000A8952FEF80E792E0215024
S11303E080409040E1F700C000000E94F800A8950A
S11303F080E090E00E947C0F60930B0270930C02EB
S113040080930D0290930E0286E090E00E94740F98
S1130410813019F48093F10105C061E086E090E039
S11304200E94A00F87E090E00E947C0F6093150269
S113043070931602809317029093180280910B0216
S113044090910C02A0910D02B0910E020A97A1099D
S1130450B10986339E47A540B105A0F08AE090E03B
S1130460A0E0B0E080930B0290930C02A0930D02E5
S1130470B0930E024AE050E060E070E080E090E06B
S11304800E94AE0F8091150290911602A09117025E
S1130490B091180280349244AF40B105A0F082E3D9
S11304A090E0A0E0B0E08093150290931602A09330
S11304B01702B093180244EF51E060E070E087E067
S11304C090E00E94AE0F0E946D010E948201259A65
S11304D02D98399A419A389A409A239A2B9A519A8C
S11304E0599A509A589A52985A9A24982C9A5398EE
S11304F05B9A0E9453001092100283E080930F02D3
S113050083B7817F826083BF83B7816083BF789420
S113051008952F923F924F925F926F927F928F92A3
S11305209F92AF92BF92CF92DF92EF92FF920F937E
S11305301F93CF93DF93CDB7DEB7A2970FB6F8948E
S1130540DEBF0FBECDBF80910F02882309F43BC1EB
S113055080911002811137C18091EE01882349F006
S11305609090150280901602309017022090180285
S113057008C09090FA018090FB013090FC0120901B
S1130580FD01809101028F93809100028F938091ED
S1130590FF018F938091FE018F9386E091E09F93FA
S11305A08F935E0122E1A20EB11CBF92AF920E9412
S11305B0C10C0FB6F894DEBF0FBECDBF8091F10120
S11305C08E010F5F1F4F882309F48AC08091F001C8
S11305D0C0900B02D0900C02E0900D02F0900E023D
S11305E0882361F00E94760128EE33E040E050E079
S11305F00E94850CC21AD30AE40AF50AC701B6019F
S113060020E13EE040E050E00E94850C29013A01DF
S113061020E13EE0249DC001259D900D349D900D68
S11306201124C81AD90AE108F108C701B6012CE35C
S113063030E040E050E00E94850C6CE3629FC00112
S1130640639F900D1124C81AD90A8091EF01882361
S1130650A1F180910401909105018130910559F433
S11306602F923F928F929F923F932F935F924F923C
S11306708AE191E01BC08C33910559F42F923F928B
S11306808F929F92DF92CF925F924F928EE291E08F
S11306900DC080319E4089F42F923F928F929F9299
S11306A0DF92CF923F932F9382E491E09F938F93B5
S11306B01F930F930E94C10C1FC02F923F928F92E1
S11306C09F92DF92CF923F932F935F924F9286E552
S11306D091E09F938F931F930F930E94C10C0CC0C2
S11306E02F923F928F929F928CE691E09F938F93EB
S11306F01F930F930E94C10C0FB6F894DEBF0FBE78
S1130700CDBF8091EE018823F1F19EE39A87823078
S1130710D1F58091000190910101A0910201B09165
S1130720030184369105A105B10529F160F48130F6
S11307309105A105B105E1F00A97A105B10519F5E7
S113074080E28F8720C0803127E29207A105B1059E
S1130750A9F0803A66E8960761E0A607B10589F03A
S1130760883E9340A105B10571F480E28D870BC0EA
S113077080E2888B08C080E28E8705C080E28C8787
S113078002C080E28B871AA2198A60E080E00E948E
S11307903801811105C00E94F80081E080930F02A6
S11307A0C5010E94540160E081E00E94380181117A
S11307B005C00E94F80081E080930F02C8010E94E6
S11307C0540110920F02A2960FB6F894DEBF0FBE2A
S11307D0CDBFDF91CF911F910F91FF90EF90DF90EC
S11307E0CF90BF90AF909F908F907F906F905F90CD
S11307F04F903F902F9008958091F001811121C076
S1130800809104019091050180312EE0920739F422
S113081081E090E090930501809304010AC04CE3C9
S1130820489F9001499F300D112430930501209376
S1130830040181E08093EF0180910F02806880932E
S11308400F020895209100013091010140910201AD
S113085050910301203A86E8380781E048075105A2
S113086069F481E090E0A0E0B0E08093000190930F
S11308700101A0930201B09303010CC0AAE0B0E00F
S11308800E94A70C60930001709301018093020100
S11308909093030110921D0210921E0210921F02E7
S11308A01092200280910F02806880930F020895B5
S11308B060910702709108028091090290910A02E6
S11308C00E94610B20E030E84CE853E40E94540A93
S11308D00E94320B6093070270930802809309020E
S11308E090930A028091070290910802A091090254
S11308F0B0910A0280389E43A105B105D8F061E0A9
S113090070E080E090E00E9499018091070290914C
S11309100802A0910902B0910A0280589E43A109DD
S1130920B1098093070290930802A0930902B0933F
S11309300A02D8CF0895CF93DF9380937C0084EC90
S113094080937A0080917A00886080937A008895F9
S113095080917A0086FDFBCF80917A00877F809317
S11309607A00D0917800C09179000E9458048C2FAD
S113097090E0982F88278D0F911DDF91CF910895D6
S1130980CF92DF92EF92FF920F931F938091EF012A
S1130990811105C01092ED011092EC0117C08091F5
S11309A0EC019091ED0101969093ED018093EC019F
S11309B08031974258F01092EF011092ED0110929D
S11309C0EC0180910F02806880930F028091EE0108
S11309D0811109C010921D0210921E0210921F0272
S11309E01092200254C080911D0290911E02A09189
S11309F01F02B0912002AC01BD014F5F5F4F6F4FEA
S1130A007F4F40931D0250931E0260931F02709308
S1130A1020028F509742A109B10980379141A1402A
S1130A20B10548F481E08093EE0180910F02806863
S1130A3080930F022CC0403858436140710538F14F
S1130A401092EE0181E090E0A0E0B0E0809300011C
S1130A5090930101A0930201B093030110921D022F
S1130A6010921E0210921F021092200280910F0217
S1130A70806880930F024091150250911602609194
S1130A8017027091180287E090E00E94940F809101
S1130A90F401811105C01092EB011092EA0189C0A2
S1130AA08091EA019091EB0101969093EB01809380
S1130AB0EA018035934C08F47CC00E947601C09012
S1130AC0F601D090F701E090F801F090F9016C196B
S1130AD07D098E099F090E94610B20E03AEB4BE5EA
S1130AE05AE40E94C00A6B017C016091FE0170917E
S1130AF0FF0180E090E00E94610B9B01AC01C70103
S1130B00B6010E94F40B2091E6013091E701409177
S1130B10E8015091E9010E94540A6B017C01609341
S1130B20E6017093E7018093E8019093E90120E0E6
S1130B3030E0A9010E94EF0B181644F5C701B60175
S1130B400E94320B0091FA011091FB012091FC01EB
S1130B503091FD01060F171F281F391F0093FA015A
S1130B601093FB012093FC013093FD010E94610B63
S1130B709B01AC01C701B6010E94530A6093E601D0
S1130B807093E7018093E8019093E9010E94760154
S1130B906093F6017093F7018093F8019093F90143
S1130BA01092EB011092EA0180910F02806480930D
S1130BB00F022091F001211105C01092E50110925D
S1130BC0E40124C08091E4019091E5010196883804
S1130BD033E1930728F49093E5018093E40116C070
S1130BE0223031F0803137E29307A8F3213099F7AE
S1130BF01092E5011092E4018091F201882319F02A
S1130C001092F20103C081E08093F20180911502F9
S1130C1090911602A0911702B09118020097A105B5
S1130C20B10539F12091F401222319F14091FA011F
S1130C305091FB016091FC017091FD014817590727
S1130C406A077B07B0F08091E2019091E30101967D
S1130C50883823E1920728F49093E3018093E2011A
S1130C600EC01092E3011092E2018091F5018823F5
S1130C7019F01092F50103C081E08093F501809191
S1130C80E0019091E10101969093E1018093E001EC
S1130C90883B9B4031F41092E1011092E0010E94E4
S1130CA089028091030290910402A0910502B091FF
S1130CB006020097A105B10561F10196A11DB11DC0
S1130CC0803523EC9207A105B10549F08093030216
S1130CD090930402A0930502B09306021AC01092E6
S1130CE003021092040210920502109206028091EF
S1130CF0020280FF0CC040910B0250910C026091E3
S1130D000D0270910E0280E090E00E94940F109208
S1130D1002021F910F91FF90EF90DF90CF90089502
S1130D200F931F930E94790090E08130910541F563
S1130D308091150290911602A0911702B0911802A9
S1130D400097A105B10509F459C0409100015091E3
S1130D500101609102017091030184179507A607B0
S1130D60B70748F410921502109216021092170257
S1130D701092180233C0841B950BA60BB70B26C028
S1130D808F3F9105D9F5409115025091160260915B
S1130D901702709118024F3322E452072FE06207C2
S1130DA0710560F58091000190910101A09102010B
S1130DB0B0910301840F951FA61FB71F803422E44E
S1130DC092072FE0A207B10508F0A5C08093150291
S1130DD090931602A0931702B093180280910F0209
S1130DE0826080930F0281E08093EE0110921D02D5
S1130DF010921E0210921F02109220028091F001A4
S1130E00811189C00E945C0090E08130910509F055
S1130E1043C080910B0290910C02A0910D02B091FD
S1130E200E028B309105A105B10508F474C0409100
S1130E3004015091050160E070E08C019D010A50AD
S1130E40110921093109041715072607370708F482
S1130E5062C0841B950BA60BB70B80930B02909377
S1130E600C02A0930D02B0930E0280910F028260D7
S1130E7080930F028091020281608093020281E0DC
S1130E8090E0A0E0B0E08093030290930402A0936A
S1130E900502B09306023FC08F3F9105E1F58091B2
S1130EA00B0290910C02A0910D02B0910E028F33AF
S1130EB02EE7920725E0A207B10568F52091040109
S1130EC030910501820F931FA11DB11D80342EE7BF
S1130ED0920725E0A207B105F0F480930B029093EA
S1130EE00C02A0930D02B0930E0281E090E0A0E00A
S1130EF0B0E08093030290930402A0930502B093A0
S1130F0006028091020281608093020280910F02A6
S1130F10826080930F021F910F9108958091F001D8
S1130F208130D9F40E94760128EE33E040E050E0AD
S1130F300E94850C80910B0290910C02A0910D02ED
S1130F40B0910E024E97A109B109281739074A0733
S1130F505B0718F082E08093F0018091F00190919A
S1130F60F101811105C0992329F021E02093F201B8
S1130F70911102C01092F2018823F1F00E947601CF
S1130F8028EE33E040E050E00E94850C80910B0293
S1130F9090910C02A0910D02B0910E02281739070E
S1130FA04A075B0748F01092F0011092F401809117
S1130FB00F02886080930F028091F401882321F04E
S1130FC081E08093F30102C01092F3018091F0015B
S1130FD0882329F080910F02806180930F02089585
S1130FE08091F301882319F02D9A2B9A02C02D9831
S1130FF02B988091F501882311F0599A01C05998D2
S11310008091F201882311F0589A08955898089510
S11310100F931F93CF938091DE019091DF0101968E
S11310209093DF018093DE01883C910509F085C02F
S11310308091F301882309F478C0C091DD01C8329E
S113104008F45BC0EDE8F1E080E090E00196DF0198
S11310509C016081718112964D915C9113974617A2
S1131060570730F413967C936E9312975183408301
S11310702F5F3F4F12962832310559F73296873247
S1131080910521F78091000290910102892B09F1C9
S11310908091B5019091B601A0E0B0E08A3091054D
S11310A0A105B105C8F04091FE015091FF0160E037
S11310B070E0481B590B6A0B7B0B433051056105EB
S11310C07105C0F0873E23E09207A105B10548F4FD
S11310D003C080E090E0DC019093FF018093FE0167
S11310E004C01092FF011092FE0180910F028061F2
S11310F080930F021092DD011CC086E490E00E94F0
S11311009B04EC2FF0E0EE0FFF1FE357FE4F97FD1B
S1131110039695958795959587959183808380917E
S1131120DD018F5F8093DD0104C01092FF011092F6
S1131130FE011092DF011092DE018091DE01909198
S1131140DF018436910561F587E490E00E949B04F9
S1131150BC01990F880B990B0E94630B2AE037EDB1
S113116043E251E40E94C00A0E94320B2091000223
S113117030910102261B370B2230310588F0623092
S1131180710528F4109201021092000204C07093B9
S113119001026093000280910F02806180930F022C
S11311A080918C018823C9F10E9476010091880105
S11311B01091890120918A0130918B01DC01CB01CE
S11311C0801B910BA20BB30B8D329140A105B1058D
S11311D020F110928C010E948D011092F601109260
S11311E0F7011092F8011092F90180918701809320
S11311F08601811105C01092F4011092F00108C01B
S113120081E08093F4019091F10191118093F001B8
S113121080910F02846080930F02809187014A9B22
S113122010C0882371F0109287010E9476016093A8
S113123088017093890180938A0190938B0181E0E6
S113124011C04A9911C081110FC00E9476016093A8
S113125088017093890180938A0190938B0181E0C6
S11312608093870180938C019091870180918601FE
S1131270981302C010928C01CF911F910F91089581
S11312808F929F92AF92BF92CF92DF92EF92FF9292
S1131290CF930E947601C0901102D0901202E09088
S11312A01302F09014024B015C018C189D08AE08E7
S11312B0BF080E947601C0901902D0901A02E090F3
S11312C01B02F0901C029B01AC012C193D094E0934
S11312D05F0969017A0139EE831633E09306A104AC
S11312E0B104D0F1809185018823B1F11092850178
S11312F045E6C416D104E104F10420F08091840190
S113130081119FC09091F10180910F02992341F0C6
S11313101092F101806180930F021092F00116C0C7
S1131320C1E0C093F101806180930F028091F401C8
S1131330882361F00E948D011092F6011092F7014A
S11313401092F8011092F901C093F0016091F1013B
S113135086E090E00E94820F1C9B16C0809183015E
S1131360882391F0D501C40185569109A109B109D9
S113137083389340A105B10510F40E94FC03109238
S113138083011092850115C01C9913C080918301BB
S113139081110FC00E9476016093110270931202B2
S11313A0809313029093140281E0809383018093CD
S11313B0850189EEC81683E0D806E104F104D8F06B
S11313C0809184018823B9F01092840125E6821665
S11313D09104A104B10438F080918501882319F0A7
S11313E01092850146C01092FA011092FB011092EE
S11313F0FC011092FD014B9B27C080918201882340
S113140019F135E6C31AD108E108F10843E8C41616
S113141043E0D406E104F10490F48091EE018111DB
S113142009C081E08093EE0180910F02806880936F
S11314300F0205C082E08093EE010E942204109204
S113144082011092840115C04B9913C080918201CE
S113145081110FC00E9476016093190270931A02E1
S113146080931B0290931C0281E0809382018093FD
S11314708401CF91FF90EF90DF90CF90BF90AF9019
S11314809F908F9008950E94E101A8950E94900674
S11314900E9440090E94C0040E9408080E948E070E
S11314A00E94F007F2CF5058BB27AA270E946B0A6C
S11314B00C94B50B0E94A70B38F00E94AE0B20F0E1
S11314C039F49F3F19F426F40C94A40B0EF4E09520
S11314D0E7FB0C949E0BE92F0E94C60B58F3BA1736
S11314E0620773078407950720F079F4A6F50C9436
S11314F0E80B0EF4E0950B2EBA2FA02D0B01B901C9
S113150090010C01CA01A0011124FF27591B99F075
S1131510593F50F4503E68F11A16F040A22F232F81
S1131520342F4427585FF3CF469537952795A795D1
S1131530F0405395C9F77EF41F16BA0B620B730B78
S1131540840BBAF09150A1F0FF0FBB1F661F771FE9
S1131550881FC2F70EC0BA0F621F731F841F48F49E
S1131560879577956795B795F7959E3F08F0B0CF27
S11315709395880F08F09927EE0F9795879508950E
S11315800E94D40A0C94B50B0E94AE0B58F00E9432
S1131590A70B40F029F45F3F29F00C949E0B5111E6
S11315A00C94E90B0C94A40B0E94C60B68F39923CA
S11315B0B1F3552391F3951B550BBB27AA2762174B
S11315C07307840738F09F5F5F4F220F331F441F58
S11315D0AA1FA9F335D00E2E3AF0E0E832D091508C
S11315E05040E695001CCAF72BD0FE2F29D0660F79
S11315F0771F881FBB1F261737074807AB07B0E8BC
S113160009F0BB0B802DBF01FF2793585F4F3AF0C1
S11316109E3F510578F00C949E0B0C94E90B5F3FB0
S1131620E4F3983ED4F3869577956795B795F79547
S11316309F5FC9F7880F911D9695879597F908952F
S1131640E1E0660F771F881FBB1F621773078407CB
S1131650BA0720F0621B730B840BBA0BEE1F88F7DA
S1131660E09508950E94CE0B88F09F5798F0B92F0B
S11316709927B751B0F0E1F0660F771F881F991FC3
S11316801AF0BA95C9F714C0B13091F00E94E80B72
S1131690B1E008950C94E80B672F782F8827B85F82
S11316A039F0B93FCCF3869577956795B395D9F71B
S11316B03EF490958095709561957F4F8F4F9F4F25
S11316C00895E89409C097FB3EF490958095709531
S11316D061957F4F8F4F9F4F9923A9F0F92F96E97A
S11316E0BB279395F695879577956795B795F111EF
S11316F0F8CFFAF4BB0F11F460FF1BC06F5F7F4F8C
S11317008F4F9F4F16C0882311F096E911C077239D
S113171021F09EE8872F762F05C0662371F096E8A6
S1131720862F70E060E02AF09A95660F771F881F75
S1131730DAF7880F9695879597F9089597F99F6733
S113174080E870E060E008959FEF80EC0895002445
S11317500A941616170618060906089500240A9412
S113176012161306140605060895092E0394000C98
S113177011F4882352F0BB0F40F4BF2B11F460FF27
S113178004C06F5F7F4F8F4F9F4F089557FD905850
S1131790440F551F59F05F3F71F04795880F97FB31
S11317A0991F61F09F3F79F08795089512161306EB
S11317B01406551FF2CF4695F1DF08C0161617061A
S11317C01806991FF1CF869571056105089408954F
S11317D0E894BB2766277727CB0197F908950E94E1
S11317E0610C08F48FEF08950E94070C0C94B50B5C
S11317F00E94A70B38F00E94AE0B20F0952311F045
S11318000C949E0B0C94A40B11240C94E90B0E94D1
S1131810C60B70F3959FC1F3950F50E0551F629F5F
S1131820F001729FBB27F00DB11D639FAA27F00D35
S1131830B11DAA1F649F6627B00DA11D661F829F5C
S11318402227B00DA11D621F739FB00DA11D621F41
S1131850839FA00D611D221F749F3327A00D611D5E
S1131860231F849F600D211D822F762F6A2F112440
S11318709F5750409AF0F1F088234AF0EE0FFF1F73
S1131880BB1F661F771F881F91505040A9F79E3FCA
S1131890510580F00C949E0B0C94E90B5F3FE4F32C
S11318A0983ED4F3869577956795B795F795E79520
S11318B09F5FC1F7FE2B880F911D9695879597F929
S11318C00895990F0008550FAA0BE0E8FEEF1616CD
S11318D01706E807F907C0F012161306E407F50720
S11318E098F0621B730B840B950B39F40A2661F094
S11318F0232B242B252B21F408950A2609F4A14037
S1131900A6958FEF811D811D0895A1E21A2EAA1BB1
S1131910BB1BFD010DC0AA1FBB1FEE1FFF1FA2179B
S1131920B307E407F50720F0A21BB30BE40BF50B98
S1131930661F771F881F991F1A9469F76095709521
S1131940809590959B01AC01BD01CF0108950E9443
S1131950B20CA59F900DB49F900DA49F800D911D76
S113196011240895A29FB001B39FC001A39F700DDD
S1131970811D1124911DB29F700D811D1124911D93
S11319800895AEE0B0E0E7ECFCE00C94D90F0D89CB
S11319901E8986E08C831A8309838FEF9FE79E83D9
S11319A08D83AE01475E5F4F6F89788DCE010196BE
S11319B00E94E30CEF81F885E00FF11F10822E9650
S11319C0E4E00C94F50FABE0B0E0E9EEFCE00C943D
S11319D0CB0F6C017B018A01FC0117821682838183
S11319E081FFCCC1CE0101963C01F6019381F70140
S11319F093FD859193FF81917F01882309F4BAC1F6
S1131A00853239F493FD859193FF81917F0185326D
S1131A1029F4B60190E00E94DA0EE7CF912C212C34
S1131A20312CFFE1F315D8F08B3279F038F48032A1
S1131A3079F08332A1F4232D20611DC08D3261F031
S1131A40803369F4232D216016C0832D8260382EE3
S1131A50E32DE4603E2E2AC0F32DF8601DC037FC50
S1131A602DC020ED280F2A3040F08E32B9F436FC18
S1131A7081C1232D2064322E19C036FE06C08AE0AF
S1131A80989E200D1124922E11C0EAE02E9E200D66
S1131A901124222EF32DF0623F2E08C08C3621F43F
S1131AA0832D8068382E02C0883641F4F70193FDF7
S1131AB0859193FF81917F018111B3CF982F9F7DF1
S1131AC09554933028F40C5F1F4F9FE399830DC006
S1131AD0833631F0833771F0833509F059C021C062
S1131AE0F801808189830E5F1F4F88248394912C91
S1131AF0530113C02801F2E04F0E511CF801A080DD
S1131B00B18036FE03C0692D70E002C06FEF7FEF35
S1131B10C5010E94CF0E4C018201F32DFF773F2EA9
S1131B2016C0280122E0420E511CF801A080B180A9
S1131B3036FE03C0692D70E002C06FEF7FEFC50170
S1131B400E94C40E4C01F32DF0683F2E820133FC39
S1131B501BC0822D90E088169906B0F4B60180E28D
S1131B6090E00E94DA0E2A94F4CFF50137FC8591B7
S1131B7037FE81915F01B60190E00E94DA0E2110D8
S1131B802A9421E0821A91088114910471F7E8C023
S1131B90843611F0893641F5F80137FE07C06081BB
S1131BA07181828193810C5F1F4F08C060817181B4
S1131BB0072E000C880B990B0E5F1F4FF32DFF7639
S1131BC03F2E97FF09C090958095709561957F4F42
S1131BD08F4F9F4FF0683F2E2AE030E0A3010E9410
S1131BE0160F882E861845C0853731F4232D2F7E95
S1131BF0B22E2AE030E025C0932D997FB92E8F367E
S1131C00C1F018F4883579F0B5C0803719F08837F9
S1131C1021F0B0C0E92FE061BE2EB4FE0DC0FB2D53
S1131C20F460BF2E09C034FE0AC0292F2660B22EEC
S1131C3006C028E030E005C020E130E002C020E129
S1131C4032E0F801B7FE07C060817181828193811F
S1131C500C5F1F4F06C06081718180E090E00E5FD1
S1131C601F4FA3010E94160F882E8618FB2DFF77A5
S1131C703F2E36FE0DC0232D2E7FA22E891458F43C
S1131C8034FE0BC032FC09C0832D8E7EA82E05C005
S1131C90B82CA32C03C0B82C01C0B92CA4FE0FC0CF
S1131CA0FE01E80DF11D8081803321F49A2D997E87
S1131CB0A92E09C0A2FE06C0B394B39404C08A2D11
S1131CC0867809F0B394A3FC11C0A0FE06C0B21438
S1131CD088F4280C922C9B180EC0B21460F4B60140
S1131CE080E290E00E94DA0EB394F7CFB21418F4B5
S1131CF02B1802C0982C212CA4FE10C0B60180E33E
S1131D0090E00E94DA0EA2FE17C0A1FC03C088E78F
S1131D1090E002C088E590E0B6010CC08A2D867878
S1131D2059F0A1FE02C08BE201C080E2A7FC8DE263
S1131D30B60190E00E94DA0E891438F4B60180E30B
S1131D4090E00E94DA0E9A94F7CF8A94F301E80D9A
S1131D50F11D8081B60190E00E94DA0E8110F5CF6A
S1131D60222009F442CEB60180E290E00E94DA0E0D
S1131D702A94F6CFF6018681978102C08FEF9FEFF8
S1131D802B96E2E10C94E70FFC0105906150704042
S1131D900110D8F7809590958E0F9F1F0895FC0130
S1131DA06150704001900110D8F7809590958E0F86
S1131DB09F1F08950F931F93CF93DF93FB012381FC
S1131DC021FD03C08FEF9FEF2CC022FF16C0468178
S1131DD05781248135814217530744F4A081B1818E
S1131DE09D012F5F3F4F318320838C932681378160
S1131DF02F5F3F4F3783268314C08B01EC01FB0117
S1131E000084F185E02D0995892BE1F6D801169619
S1131E108D919C911797019617969C938E93169784
S1131E20CE01DF91CF911F910F910895FA01AA2756
S1131E30283051F1203181F1E8946F936E7F6E5F09
S1131E407F4F8F4F9F4FAF4FB1E03ED0B4E03CD0B7
S1131E50670F781F891F9A1FA11D680F791F8A1F9A
S1131E60911DA11D6A0F711D811D911DA11D20D001
S1131E7009F468943F912AE0269F11243019305DBB
S1131E803193DEF6CF010895462F4770405D4193AC
S1131E90B3E00FD0C9F7F6CF462F4F70405D4A33F9
S1131EA018F0495D31FD4052419302D0A9F7EACFC1
S1131EB0B4E0A6959795879577956795BA95C9F7F0
S1131EC000976105710508959B01AC010A2E0694E3
S1131ED05795479537952795BA95C9F7620F731F9C
S1131EE0841F951FA01D0895F999FECF92BD81BD51
S1131EF0F89A992780B50895A6E1B0E044E050E04F
S1131F000C94BD0F262FF999FECF92BD81BDF89A8E
S1131F10019700B4021639F01FBA20BD0FB6F89429
S1131F20FA9AF99A0FBE08950396272F0E94830FF9
S1131F300E94820F252F0E94830F242F0C94830F5D
S1131F40262FF999FECF1FBA92BD81BD20BD0FB6D1
S1131F50F894FA9AF99A0FBE01960895242F0E94D4
S1131F60A10F252F0E94A10F0C94B60F0E94A00F61
S1131F70272F0C94A10FDC01CB01FC01F999FECFB2
S1131F8006C0F2BDE1BDF89A319600B40D924150FD
S1131F905040B8F708952F923F924F925F926F92FC
S1131FA07F928F929F92AF92BF92CF92DF92EF92E5
S1131FB0FF920F931F93CF93DF93CDB7DEB7CA1B66
S1131FC0DB0B0FB6F894DEBF0FBECDBF09942A8891
S1131FD0398848885F846E847D848C849B84AA8439
S1131FE0B984C884DF80EE80FD800C811B81AA81C6
S1131FF0B981CE0FD11D0FB6F894DEBF0FBECDBF91
S10B2000ED010895F894FFCFEF
S1132008010000000100493D253033754120553D4C
S1132018253032755620412A6800253032753A2514
S11320283032753A202020202530366C7500253052
S113203832753A20203A2530327520202530366C06
S1132048750020203A253032753A25303275202023
S11320582530366C7500253032753A253032753A9C
S11320682530327520202530366C75002D2D3A2DFB
S10F20782D3A2D2D20202530366C7500EB
S9030000FC
