:100000000C9434000C9451000C9451000C94510049
:100010000C9451000C9451000C9451000C9451001C
:100020000C9451000C9451000C9451000C9451000C
:100030000C9451000C9451000C94BB010C94510091
:100040000C9451000C9451000C9451000C945100EC
:100050000C9451000C94E0010C9451000C9451004C
:100060000C9451000C94510011241FBECFEFD8E026
:10007000DEBFCDBF12E0A0E0B1E0E8EFF9E202C0E0
:1000800005900D92AA30B107D9F722E0AAE0B2E0BC
:1000900001C01D92A43CB207E1F70E941C0F0C9412
:1000A000FA140C940000569857985E9A5F9A5498E8
:1000B00055985C9A5D9A089599B196FB332730F96B
:1000C0004F99326020910B02822F8370381769F0AC
:1000D00044E0249FC0011124932F982B90930B028E
:1000E000913E29F081E0923D19F080E008958FEF74
:1000F000089599B194FB332730F94D9932602091DE
:100100000A02822F8370381769F044E0249FC001EF
:100110001124932F982B90930A02913E29F081E0AD
:10012000923D19F080E008958FEF089594B19760A3
:1001300094B997B19C6397B92998662311F0289ACE
:1001400001C0289898B1937C98B983FD459A82FDA7
:10015000449A81FD439A80FD429A2A9A8AE18A95BF
:10016000F1F700C02A98089594B1976094B9299A3C
:10017000882311F0289A01C028982A9A87B1837C95
:1001800087B988B18C6388B98AE18A95F1F700C094
:100190002A98359B02C088E001C080E034998460D1
:1001A00033998260329981600895CF93DF93C82F8D
:1001B0000E94B400D82FD295D07F8C2F0E94B4001B
:1001C0008D2BDF91CF910895CF93DF93C82FD62F3A
:1001D00082958F700E9496006D2F8C2FDF91CF91AA
:1001E0000C94960080E00E94D500880F880B08953B
:1001F00060E083E00E9496008FE19EE40197F1F7B2
:1002000000C0000060E083E00E94960087EB91E070
:100210000197F1F700C0000060E083E00E949600C3
:100220000E94F2008111FCCF60E082E00E94960003
:100230000E94F2008111FCCF60E088E20E94E4009D
:100240000E94F2008111FCCF60E081E00E94E40096
:100250000E94F2008111FCCF60E086E00E94E40081
:100260000E94F2008111FCCF60E08CE00C94E4006D
:10027000CF93DF93D82FC62F0E94F2008111FCCFBD
:100280008C2F90E4D99F800D112460E080680E943B
:10029000E400C0E00E94F200882311F0C1E0FACF30
:1002A0008C2FDF91CF9108950F931F93CF93DF93FE
:1002B000EC018E018881882359F00E94F20081119F
:1002C000FCCF219661E0F80180810E94E400F1CF2B
:1002D000DF91CF911F910F91089582E084BD93E04B
:1002E00095BD80936E008AEF87BD08952FB7F8946F
:1002F00060910C0270910D0280910E0290910F029C
:100300002FBF0895E4E6F0E080818F7D8083EEE6E4
:10031000F0E080818260808308958FB7F894109216
:100320000C0210920D0210920E0210920F028FBF5B
:100330000895CF92DF92EF92FF922FB7F894C0907A
:100340000C02D0900D02E0900E02F0900F02DC0142
:10035000CB018C0D9D1DAE1DBF1D80930C02909393
:100360000D02A0930E02B0930F022FBFFF90EF90EB
:10037000DF90CF9008951F920F920FB60F92112425
:100380008F939F93AF93BF9380910C0290910D0236
:10039000A0910E02B0910F020196A11DB11D809394
:1003A0000C0290930D02A0930E02B0930F02BF9126
:1003B000AF919F918F910F900FBE0F901F90189546
:1003C00018954F925F926F927F928F929F92AF9209
:1003D000BF92CF92DF92EF92FF92CF93DF939DE097
:1003E00088E10FB6F894A895809360000FBE9093B3
:1003F0006000A8952FEF80E792E021508040904068
:10040000E1F700C000000E94F800A89580E090E0AD
:100410000E9468146093A7027093A8028093A902B7
:100420009093AA0286E090E00E946014813019F453
:100430008093830205C061E086E090E00E949814FA
:1004400087E090E00E9468146093B1027093B2025A
:100450008093B3029093B4028091A7029091A80276
:10046000A091A902B091AA020A97A109B109863305
:100470009E47A540B105A0F08AE090E0A0E0B0E082
:100480008093A7029093A802A093A902B093AA0216
:100490004AE050E060E070E080E090E00E94A61446
:1004A0008091B1029091B202A091B302B091B402D6
:1004B00080349244AF40B105A0F082E390E0A0E028
:1004C000B0E08093B1029093B202A093B302B093D4
:1004D000B40244EF51E060E070E087E090E00E94F9
:1004E000A6148CE090E00E946014813019F480938F
:1004F0008B0205C061E08CE090E00E9498148DE0D2
:1005000090E00E946E149093A2028093A10281E178
:1005100090E00E94601496EF980F913518F4809344
:10052000B90208C082E38093B90262E381E190E0FE
:100530000E94981482E190E00E946E14BC0180E059
:1005400090E00E94461020E030E040E251E40E943A
:100550009E0F6B017C0120E030E040E251E40E94FC
:10056000F81018169CF02DEC3CEC4CE45EE3C7014F
:10057000B6010E94990F87FD09C0C092A302D092D4
:10058000A402E092A502F092A60211C080E090E0E1
:10059000A0E8BFE38093A3029093A402A093A502D6
:1005A000B093A6026AE082E190E00E949814209144
:1005B000A3023091A4024091A5025091A60260E0EE
:1005C00070E080E89FE30E949E0F20E030E04AE761
:1005D00054E40E94FD100E9417107093C1026093B2
:1005E000C00280E090E00E9446104B015C016091E7
:1005F000B90270E080E090E00E94461020E030E018
:1006000048EC52E40E949E0F2B013C019B01AC017F
:10061000C501B4010E94FD100E9417106B017C01FE
:10062000EB017093C3026093C202A301920160E0E8
:1006300070E080E89FE30E942C0FA50194010E94C6
:10064000FD100E941710AB017093BF026093BE02B1
:100650002AE0C21AD1082091A1023091A202C2164A
:10066000D30628F0FB013A97E217F30780F4C4178A
:10067000D50720F06B012AE0C21AD108D092A2025D
:10068000C092A102B6018DE090E00E94AE140E94DB
:100690006D010E948201259A2D9A399A419A389AC1
:1006A000409A239A2B9A519A599A509A589A52984A
:1006B0005A9A24982C9A53985B9A0E94530010924D
:1006C000AC0283E08093AB0283B7817F826083BFFB
:1006D00083B7816083BF7894DF91CF91FF90EF90D3
:1006E000DF90CF90BF90AF909F908F907F906F9052
:1006F0005F904F9008952F923F924F925F926F922A
:100700007F928F929F92AF92BF92CF92DF92EF92A1
:10071000FF920F931F93CF93DF93CDB7DEB7A297CE
:100720000FB6F894DEBF0FBECDBF8091AB02882319
:1007300009F4EAC18091AC028111E6C18091000107
:100740009E012E5E3F4F79018E010F5F1F4F81305A
:1007500009F022C180918002882349F0D090B10233
:10076000C090B202B090B302A090B40208C0D09082
:100770009002C0909102B0909202A090930280915A
:1007800097028F93809196028F93809195028F9319
:10079000809194028F9387E091E09F938F93FF92D3
:1007A000EF920E94AD110FB6F894DEBF0FBECDBF21
:1007B00080918302882309F497C08091820240903F
:1007C000A7025090A8026090A9027090AA02882304
:1007D00079F00E94760128EE33E040E050E00E947C
:1007E0006A1112012301221A330A440A550A02C06F
:1007F00012012301C201B10120E13EE040E050E0DE
:100800000E946A11922E832E742E652EA0E1BEE006
:100810000E948C11261A370A480A590AC201B101EE
:100820002CE330E040E050E00E946A11822F922FCA
:10083000622D4CE3249F6019112420918102222310
:10084000F1F140910501509106014130510569F4E3
:10085000AF92BF92CF92DF923F938F936F927F922E
:100860008F929F928BE191E00FC04C33510599F428
:10087000AF92BF92CF92DF921F926F936F927F924F
:100880008F929F9280E391E09F938F931F930F939A
:100890000E94AD1135C040315E4089F4AF92BF92E5
:1008A000CF92DF921F926F933F938F9385E491E0F5
:1008B0009F938F931F930F930E94AD1121C0AF920E
:1008C000BF92CF92DF921F926F933F939F936F924D
:1008D0007F928F929F9289E591E09F938F931F93D0
:1008E0000F930E94AD110CC0AF92BF92CF92DF92D6
:1008F00080E791E09F938F931F930F930E94AD1118
:100900000FB6F894DEBF0FBECDBF80918002882362
:1009100009F4DAC09EE39A87823009F0D5C080914D
:10092000010190910201A0910301B091040184366C
:100930009105A105B10539F168F481309105A10552
:10094000B105F1F00A97A105B10509F0BDC080E23B
:100950008F87BAC0803127E29207A105B105B1F0B7
:10096000803A36E8930731E0A307B10591F0883E5D
:100970009340A105B10509F0A7C080E28D87A4C00E
:1009800080E2888BA1C080E28E879EC080E28C8747
:100990009BC080E28B8798C080918B02882309F4EA
:1009A00082C04090A3025090A4026090A502709073
:1009B000A602C301B2010E9410104B015C01072E78
:1009C000000C880B990B0E9448109B01AC01C301DD
:1009D000B2010E942C0F20E030E040E251E40E947E
:1009E000FD100E941010D62EC72E8091A2028F9368
:1009F0008091A1028F9380E891E09F938F93FF9263
:100A0000EF920E94AD11CF92DF929F928F928091D0
:100A1000B9021F928F9381E991E09F938F931F9367
:100A20000F930E94AD110FB6F894DEBF0FBECDBF7D
:100A300080918102882309F447C080917F02882336
:100A400009F442C08430E9F0883041F08230E1F5A9
:100A50006AEA71E0C7010E94A61136C08091B9020E
:100A60001F928F938BEB91E09F938F931F930F9324
:100A70000E94AD110F900F900F900F900F900F905C
:100A800023C0CF92DF929F928F928FEC91E09F9341
:100A90008F931F930F930E94AD110FB6F894DEBF92
:100AA0000FBECDBF11C066EE71E0C9010E94A61154
:100AB00087EF91E09F938F931F930F930E94AD1147
:100AC0000F900F900F900F901AA2198A60E080E0AB
:100AD0000E943801811105C00E94F80081E08093D6
:100AE000AB02C7010E94540160E081E00E9438011E
:100AF000811105C00E94F80081E08093AB02C8011B
:100B00000E9454011092AB02A2960FB6F894DEBF79
:100B10000FBECDBFDF91CF911F910F91FF90EF904E
:100B2000DF90CF90BF90AF909F908F907F906F900D
:100B30005F904F903F902F90089580918202811195
:100B400021C0809105019091060180312EE092072D
:100B500039F481E090E090930601809305010AC08A
:100B60004CE3489F9001499F300D112430930601BA
:100B70002093050181E0809381028091AB0280681F
:100B80008093AB02089520910101309102014091C0
:100B9000030150910401203A86E8380781E04807B4
:100BA000510569F481E090E0A0E0B0E0809301019C
:100BB00090930201A0930301B09304010CC0AAE03A
:100BC000B0E00E948C116093010170930201809348
:100BD0000301909304011092BA021092BB0210928A
:100BE000BC021092BD028091AB0280688093AB0280
:100BF000089560919D0270919E0280919F02909154
:100C0000A0020E94461020E030E84CE853E40E9425
:100C10002D0F0E94171060939D0270939E02809387
:100C20009F029093A00280919D0290919E02A091BC
:100C30009F02B091A00280389E43A105B105D8F073
:100C400061E070E080E090E00E94990180919D0257
:100C500090919E02A0919F02B091A00280589E4365
:100C6000A109B10980939D0290939E02A0939F02D7
:100C7000B093A002D8CF0895CF93DF9380937C00E8
:100C800084EC80937A0080917A00886080937A0067
:100C9000889580917A0086FDFBCF80917A00877FCE
:100CA00080937A00D0917800C09179000E94F90574
:100CB0008C2F90E0982F88278D0F911DDF91CF9179
:100CC00008958F929F92AF92BF92CF92DF92EF9250
:100CD000FF9280918102811105C010927E021092D4
:100CE0007D0217C080917D0290917E0201969093C3
:100CF0007E0280937D028031974258F010928102EB
:100D000010927E0210927D028091AB0280688093E7
:100D1000AB0280918002811109C01092BA02109238
:100D2000BB021092BC021092BD0254C08091BA0264
:100D30009091BB02A091BC02B091BD02AC01BD017B
:100D40004F5F5F4F6F4F7F4F4093BA025093BB028C
:100D50006093BC027093BD028F509742A109B10904
:100D600080379141A140B10548F481E08093800231
:100D70008091AB0280688093AB022CC0403858430E
:100D80006140710538F11092800281E090E0A0E0AE
:100D9000B0E08093010190930201A0930301B0930E
:100DA00004011092BA021092BB021092BC0210927F
:100DB000BD028091AB0280688093AB024091B1028A
:100DC0005091B2026091B3027091B40287E090E05A
:100DD0000E94861480918802811105C010927C02C5
:100DE00010927B02E1C080917B0290917C0201967F
:100DF00090937C0280937B028035934C08F4D4C09E
:100E000080918B02882309F449C00E947601C0902A
:100E10008C02D0908D02E0908E02F0908F026C19BF
:100E20007D098E099F090E94461020E03AEB4BE5B0
:100E30005AE40E949E0F6B017C01609194027091B4
:100E4000950280E090E00E9446109B01AC01C70132
:100E5000B6010E94FD106B017C016091A1027091AE
:100E6000A20280E090E00E9446104B015C0160917C
:100E7000C0027091C10280E090E00E9446109B0188
:100E8000AC01C501B4010E949E0F9B01AC0160E062
:100E900070E080E89FE30E942C0F20C00E94760142
:100EA000C0908C02D0908D02E0908E02F0908F0264
:100EB0006C197D098E099F090E94461020E03AEBCB
:100EC0004BE55AE40E949E0F6B017C0160919402F5
:100ED0007091950280E090E00E9446109B01AC0169
:100EE000C701B6010E94FD109B01AC016091770221
:100EF000709178028091790290917A020E942D0F70
:100F000060937702709378028093790290937A02CB
:100F1000C0907702D0907802E0907902F0907A0247
:100F200020E030E0A901C701B6010E94F8101816B0
:100F300044F5C701B6010E9417108090900290906E
:100F40009102A0909202B0909302860E971EA81E66
:100F5000B91E8092900290929102A0929202B09259
:100F600093020E9446109B01AC01C701B6010E948A
:100F70002C0F60937702709378028093790290939C
:100F80007A020E94760160938C0270938D028093A6
:100F90008E0290938F0210927C0210927B028091BD
:100FA000AB0280648093AB0220918202211105C0C4
:100FB000109276021092750224C080917502909171
:100FC00076020196883833E1930728F490937602ED
:100FD0008093750216C0223031F0803137E29307DA
:100FE000A8F3213099F71092760210927502809141
:100FF0008402882319F01092840203C081E0809358
:1010000084028091B1029091B202A091B302B0919A
:10101000B4020097A105B10539F12091880222237D
:1010200019F1409190025091910260919202709159
:101030009302481759076A077B07B0F08091730243
:10104000909174020196883823E1920728F49093D6
:101050007402809373020EC0109274021092730295
:1010600080918902882319F01092890203C081E0DF
:1010700080938902809171029091720201969093FF
:10108000720280937102883B9B4031F4109272028D
:10109000109271020E947B038091990290919A02B2
:1010A000A0919B02B0919C020097A105B10509F4A3
:1010B0005AC00196A11DB11D803523EC9207A105F0
:1010C000B10549F08093990290939A02A0939B02F4
:1010D000B0939C0248C01092990210929A0210920A
:1010E0009B0210929C028091980280FF0CC040915C
:1010F000A7025091A8026091A9027091AA0280E013
:1011000090E00E9486148091980281FF08C060914F
:10111000A1027091A2028DE090E00E949214809151
:10112000980282FF06C06091B90281E190E00E94BE
:1011300074148091980283FF14C020E030E040E2F4
:1011400051E46091A3027091A4028091A502909154
:10115000A6020E94FD100E94171082E190E00E94FA
:10116000921410929802FF90EF90DF90CF90BF9072
:10117000AF909F908F9008958F929F92AF92BF9261
:10118000CF92DF92EF92FF922091A3023091A402BE
:101190004091A5025091A60260E070E080E89FE3D4
:1011A0000E949E0F20E030E04AE754E40E94FD10C8
:1011B0000E9417106B017C017093C1026093C00202
:1011C0006091B90270E080E090E00E94461020E05B
:1011D00030E048EC52E40E949E0F4B015C01B601E6
:1011E00080E090E00E9446109B01AC01C501B40173
:1011F0000E94FD100E9417107093C3026093C202F8
:10120000C61AD70AD092BF02C092BE02FF90EF90DA
:10121000DF90CF90BF90AF909F908F900895CF9226
:10122000DF92EF92FF92CF930E94790090E020919D
:101230000001213009F07DC08F3F9105C1F58091FB
:10124000B1029091B202A091B302B091B4020097A2
:10125000A105B10509F467C0409101015091020157
:10126000609103017091040184179507A607B707E1
:1012700048F41092B1021092B2021092B30210928E
:10128000B4020CC0841B950BA60BB70B8093B10264
:101290009093B202A093B302B093B4028091AB02D8
:1012A00082608093AB0281E08093800234C001971A
:1012B000D1F54091B1025091B2026091B3027091A8
:1012C000B4024F3332E453073FE06307710558F52A
:1012D0008091010190910201A0910301B09104015C
:1012E000840F951FA61FB71F803432E493073FE099
:1012F000A307B10508F0ADC18093B1029093B2028B
:10130000A093B302B093B4028091AB028260809349
:10131000AB02209380021092BA021092BB0210928C
:10132000BC021092BD0280918202882309F4DEC0C3
:1013300090C1223009F0DAC020918B02222309F4F7
:1013400088C120917F02C0919802243009F479C0AD
:10135000283089F1223009F09DC08130910531F4A7
:101360008091A1029091A20201960CC08F3F91053D
:1013700009F090C08091A1029091A202009709F417
:1013800089C001979093A2028093A102C260C0938A
:10139000980281E090E0A0E0B0E080939902909301
:1013A0009A02A0939B02B0939C028091AB02826050
:1013B0008093AB026FC081309105D9F4C090A30235
:1013C000D090A402E090A502F090A60220E030E0C8
:1013D00040E251E4C701B6010E94990F87FF5AC04D
:1013E0002DEC3CEC4CEC5DE3C701B6010E942D0FE7
:1013F0001EC08F3F910509F04DC0C090A302D09050
:10140000A402E090A502F090A6022DEC3CEC4CE486
:101410005EE3C701B6010E94F8101816DCF52DEC4A
:101420003CEC4CEC5DE3C701B6010E942C0F6093CD
:10143000A3027093A4028093A5029093A602C860B1
:1014400014C08130910531F48091B9028A3510F5CC
:101450008F5F08C08F3F9105E9F48091B9028B300E
:10146000C8F081508093B902C460C093980281E0B3
:1014700090E0A0E0B0E08093990290939A02A0934C
:101480009B02B0939C028091AB0282608093AB027E
:101490000E94BC0880919802882341F19091AB0290
:1014A000992321F16091C2027091C3029B012A50DD
:1014B0003109E091A102F091A2024091BE02509147
:1014C000BF022E173F0728F0DA011A97AE17BF07A1
:1014D00068F46417750718F09A012A50310930939F
:1014E000A2022093A1028260809398020E945C0075
:1014F00090E020910001213009F085C08F3F9105D7
:1015000009F044C08091A7029091A802A091A9027D
:10151000B091AA028B309105A105B10508F499C0DC
:10152000409105015091060160E070E06C017D0181
:101530002AE0C21AD108E108F108C416D506E60669
:10154000F70608F486C0841B950BA60BB70B809397
:10155000A7029093A802A093A902B093AA02809137
:10156000AB0282608093AB0280919802816080938D
:10157000980281E090E0A0E0B0E08093990290931F
:101580009A02A0939B02B0939C0263C0019709F05A
:1015900060C08091A7029091A802A091A902B09189
:1015A000AA028F333EE7930735E0A307B10508F0A1
:1015B00050C02091050130910601820F931FA11D9B
:1015C000B11D80342EE7920725E0A207B10508F08F
:1015D00040C08093A7029093A802A093A902B09361
:1015E000AA0281E090E0A0E0B0E08093990290939D
:1015F0009A02A0939B02B0939C0280919802816012
:101600008093980221C0223021F530918B02332340
:1016100001F18130910541F480917F02823011F413
:1016200088E00DC086950BC08F3F910591F48091A5
:101630007F02883019F420937F0203C0880F8093C3
:101640007F0281E0809381028091AB02826080936F
:10165000AB02CF91FF90EF90DF90CF9008950F9362
:101660001F93809182028130D9F40E94760128EE86
:1016700033E040E050E00E946A118091A70290910F
:10168000A802A091A902B091AA024E97A109B1099E
:10169000281739074A075B0718F082E08093820217
:1016A0008091820290918302811105C0992329F0D3
:1016B00021E020938402911102C0109284028823B9
:1016C000F1F00E94760128EE33E040E050E00E9405
:1016D0006A118091A7029091A802A091A902B091ED
:1016E000AA02281739074A075B0748F010928202BE
:1016F000109288028091AB0288608093AB02809147
:101700008802882309F4D5C080918B02882309F4CC
:10171000C8C080918A028230D1F130F4882309F464
:10172000AEC0813041F0CDC0833009F45EC084305A
:1017300009F489C0C6C00E94760100916D02109123
:101740006E0220916F0230917002AB01BC01401B10
:10175000510B620B730B8091C2029091C302A0E007
:10176000B0E0481759076A077B0708F4AAC00E942F
:10177000760160936D0270936E0280936F02909376
:10178000700282E080938A021092860259C00E9401
:10179000760100916D0210916E0220916F023091DE
:1017A0007002AB01BC01401B510B620B730B8091AB
:1017B000A1029091A2020196A0E0B0E0481759075B
:1017C0006A077B0708F47DC00E94760160936D0272
:1017D00070936E0280936F029093700283E0809307
:1017E0008A0281E08093850259C00E9476010091AF
:1017F0006D0210916E0220916F0230917002AB0168
:10180000BC01401B510B620B730B8091BE02909187
:10181000BF02A0E0B0E0481759076A077B0708F449
:1018200050C00E94760160936D0270936E028093A7
:101830006F029093700284E080938A021092850276
:10184000109287023EC00E94760100916D021091B5
:101850006E0220916F0230917002AB01BC01401BFF
:10186000510B620B730B8091A1029091A202019621
:10187000A0E0B0E0481759076A077B0710F10E9403
:10188000760160936D0270936E0280936F02909365
:10189000700281E080938A0280938602809387029F
:1018A00010C081E08093870210928A0280938602A2
:1018B00006C01092870210928A021092860210923D
:1018C000850280918202882329F08091AB02806199
:1018D0008093AB021F910F91089580918702882316
:1018E00019F02D982B9A02C02D9A2B988091860280
:1018F000882311F0419A01C0419880918502882384
:1019000011F0409A01C0409880918902882311F01B
:10191000599A01C0599880918402882311F0589AED
:101920000895589808950F931F93CF9380916B0259
:1019300090916C02019690936C0280936B02883CAC
:10194000910509F08FC080918602811105C08091B8
:101950008502882309F478C0C0916A02C83208F46D
:101960005BC0EAE1F2E080E090E00196DF019C01DB
:101970006081718112964D915C91139746175707BC
:1019800030F413967C936E931297518340832F5FAC
:101990003F4F12962832310559F73296873291051A
:1019A00021F78091960290919702892B09F18091FD
:1019B000420290914302A0E0B0E08A309105A10577
:1019C000B105C8F0409194025091950260E070E03A
:1019D000481B590B6A0B7B0B4330510561057105A0
:1019E000C0F0873E23E09207A105B10548F403C08B
:1019F00080E090E0DC01909395028093940204C013
:101A000010929502109294028091AB0280618093B3
:101A1000AB0210926A0222C086E490E00E943C066B
:101A2000EC2FF0E0EE0FFF1FE65EFD4F97FD0396F3
:101A300095958795959587959183808380916A0286
:101A40008F5F80936A020AC080918A02843031F0ED
:101A5000823021F0109295021092940210926C0242
:101A600010926B0280916B0290916C02843691050A
:101A700061F587E490E00E943C06BC01990F880B59
:101A8000990B0E9448102AE037ED43E251E40E948E
:101A90009E0F0E9417102091960230919702261BEC
:101AA000370B2230310588F06230710528F410922E
:101AB00097021092960204C0709397026093960268
:101AC0008091AB0280618093AB020E94760100910D
:101AD0001602109117022091180230911902DC01B0
:101AE000CB01801B910BA20BB30B85369105A10591
:101AF000B10530F180911502882311F11092150281
:101B00000E948D0110928C0210928D0210928E0212
:101B100010928F0280918802882329F01092880207
:101B20001092820208C081E0809388029091830223
:101B30009111809382028091AB0284608093AB020A
:101B40004A9B09C080911402882329F01092140244
:101B50001092150215C04A9913C080911402811188
:101B60000FC00E9476016093160270931702809353
:101B700018029093190281E0809314028093150259
:101B8000CF911F910F9108958F929F92AF92BF9224
:101B9000CF92DF92EF92FF92CF930E947601C09096
:101BA000AD02D090AE02E090AF02F090B0024B01D7
:101BB0005C018C189D08AE08BF080E947601C09099
:101BC000B502D090B602E090B702F090B8029B0147
:101BD000AC012C193D094E095F0969017A0139EE02
:101BE000831633E09306A104B10408F45AC080912F
:101BF0001302882309F455C010921302C09100010A
:101C000045E6C416D104E104F10450F080911202BB
:101C1000882331F010921202C13009F096C08FC0B3
:101C2000C13051F5909183028091AB02992341F02C
:101C30001092830280618093AB021092820215C0E1
:101C4000C093830280618093AB02809188028823D5
:101C500061F00E948D0110928C0210928D02109200
:101C60008E0210928F02C09382026091830286E0FE
:101C700090E00E94741415C080918B02882321F09B
:101C800010928B0260E004C081E080938B0261E0DF
:101C90008CE090E00E9474148091AB02806180938C
:101CA000AB021C9B1AC0809111028823B1F0D501B0
:101CB000C40185569109A109B10983389340A10552
:101CC000B10530F480910001813011F40E949D052E
:101CD000109211021092130215C01C9913C080912A
:101CE000110281110FC00E9476016093AD027093C2
:101CF000AE028093AF029093B00281E08093110214
:101D00008093130289EEC81683E0D806E104F1043B
:101D100088F180911202882369F110921202809159
:101D2000000195E689169104A104B104C8F09091D0
:101D300013029923A9F010921302813031F482E04A
:101D40008093000180937F0205C081E080930001B1
:101D500010927F028091AB0280688093AB0262C0D8
:101D6000813041F4109290021092910210929202EE
:101D7000109293024B9B41C0809110028823E9F19D
:101D800025E6C21AD108E108F10833E8C31633E0AA
:101D9000D306E104F10460F590910001913081F4E3
:101DA00080918002811106C0909380028091AB02E5
:101DB00080681CC082E0809380020E94C30518C026
:101DC0009230B1F480918B02882391F080917F0250
:101DD000883019F490937F0203C0880F80937F02AC
:101DE00081E0809381028091AB0282608093AB029C
:101DF000109210021092120215C04B9913C08091DC
:101E0000100281110FC00E9476016093B502709399
:101E1000B6028093B7029093B80281E080931002DB
:101E200080931202CF91FF90EF90DF90CF90BF9000
:101E3000AF909F908F9008950E94E101A8950E9415
:101E40000F090E94C40D0E9461060E94930C0E941B
:101E50002F0B0E946D0CF2CF5058BB27AA270E946F
:101E6000440F0C94BE100E94B01038F00E94B710BE
:101E700020F039F49F3F19F426F40C94AD100EF4C1
:101E8000E095E7FB0C94A710E92F0E94CF1058F3C0
:101E9000BA17620773078407950720F079F4A6F54F
:101EA0000C94F1100EF4E0950B2EBA2FA02D0B011F
:101EB000B90190010C01CA01A0011124FF27591B8F
:101EC00099F0593F50F4503E68F11A16F040A22F95
:101ED000232F342F4427585FF3CF46953795279506
:101EE000A795F0405395C9F77EF41F16BA0B620B05
:101EF000730B840BBAF09150A1F0FF0FBB1F661F4C
:101F0000771F881FC2F70EC0BA0F621F731F841F8E
:101F100048F4879577956795B795F7959E3F08F0B4
:101F2000B0CF9395880F08F09927EE0F9795879576
:101F300008950E94831008F481E008950E94B20F72
:101F40000C94BE100E94B71058F00E94B01040F0E0
:101F500029F45F3F29F00C94A71051110C94F21052
:101F60000C94AD100E94CF1068F39923B1F3552360
:101F700091F3951B550BBB27AA276217730784079C
:101F800038F09F5F5F4F220F331F441FAA1FA9F332
:101F900035D00E2E3AF0E0E832D091505040E69520
:101FA000001CCAF72BD0FE2F29D0660F771F881F81
:101FB000BB1F261737074807AB07B0E809F0BB0B74
:101FC000802DBF01FF2793585F4F3AF09E3F510588
:101FD00078F00C94A7100C94F2105F3FE4F3983E55
:101FE000D4F3869577956795B795F7959F5FC9F771
:101FF000880F911D9695879597F90895E1E0660FF2
:10200000771F881FBB1F621773078407BA0720F06A
:10201000621B730B840BBA0BEE1F88F7E0950895D3
:102020000E9417106894B1110C94F21008950E9448
:10203000D71088F09F5798F0B92F9927B751B0F073
:10204000E1F0660F771F881F991F1AF0BA95C9F73C
:1020500014C0B13091F00E94F110B1E008950C94D9
:10206000F110672F782F8827B85F39F0B93FCCF38C
:10207000869577956795B395D9F73EF490958095B9
:10208000709561957F4F8F4F9F4F0895E89409C0D9
:1020900097FB3EF490958095709561957F4F8F4F9B
:1020A0009F4F9923A9F0F92F96E9BB279395F695B1
:1020B000879577956795B795F111F8CFFAF4BB0F2F
:1020C00011F460FF1BC06F5F7F4F8F4F9F4F16C093
:1020D000882311F096E911C0772321F09EE8872F1D
:1020E000762F05C0662371F096E8862F70E060E0D9
:1020F0002AF09A95660F771F881FDAF7880F969552
:10210000879597F90895990F0008550FAA0BE0E8F5
:10211000FEEF16161706E807F907C0F012161306A9
:10212000E407F50798F0621B730B840B950B39F4E9
:102130000A2661F0232B242B252B21F408950A264F
:1021400009F4A140A6958FEF811D811D089597F98F
:102150009F6780E870E060E008959FEF80EC08954D
:1021600000240A9416161706180609060895002476
:102170000A9412161306140605060895092E0394F0
:10218000000C11F4882352F0BB0F40F4BF2B11F464
:1021900060FF04C06F5F7F4F8F4F9F4F089557FDC3
:1021A0009058440F551F59F05F3F71F04795880FC5
:1021B00097FB991F61F09F3F79F08795089512165C
:1021C00013061406551FF2CF4695F1DF08C0161608
:1021D00017061806991FF1CF8695710561050894B9
:1021E0000895E894BB2766277727CB0197F90895D0
:1021F0000E94831008F48FEF08950E9410110C9430
:10220000BE100E94B01038F00E94B71020F0952345
:1022100011F00C94A7100C94AD1011240C94F21032
:102220000E94CF1070F3959FC1F3950F50E0551F9A
:10223000629FF001729FBB27F00DB11D639FAA271B
:10224000F00DB11DAA1F649F6627B00DA11D661F6A
:10225000829F2227B00DA11D621F739FB00DA11D8B
:10226000621F839FA00D611D221F749F3327A00D45
:10227000611D231F849F600D211D822F762F6A2FE1
:1022800011249F5750409AF0F1F088234AF0EE0F46
:10229000FF1FBB1F661F771F881F91505040A9F773
:1022A0009E3F510580F00C94A7100C94F2105F3FF4
:1022B000E4F3983ED4F3869577956795B795F795AF
:1022C000E7959F5FC1F7FE2B880F911D9695879527
:1022D00097F90895A1E21A2EAA1BBB1BFD010DC0A0
:1022E000AA1FBB1FEE1FFF1FA217B307E407F507C6
:1022F00020F0A21BB30BE40BF50B661F771F881FA2
:10230000991F1A9469F760957095809590959B0137
:10231000AC01BD01CF0108950E949711A59F900DBA
:10232000B49F900DA49F800D911D11240895A29F2C
:10233000B001B39FC001A39F700D811D1124911D99
:10234000B29F700D811D1124911D0895FB01DC01C8
:1023500001900D920020E1F70895AEE0B0E0E3EBCC
:10236000F1E10C94D1140D891E8986E08C831A83C7
:1023700009838FEF9FE79E838D83AE01475E5F4F9A
:102380006F89788DCE0101960E94CF11EF81F8857B
:10239000E00FF11F10822E96E4E00C94ED14ABE0F8
:1023A000B0E0E5EDF1E10C94C3146C017B018A010E
:1023B000FC0117821682838181FFCCC1CE01019678
:1023C0003C01F6019381F70193FD859193FF819183
:1023D0007F01882309F4BAC1853239F493FD8591D0
:1023E00093FF81917F01853229F4B60190E00E942C
:1023F000C613E7CF912C212C312CFFE1F315D8F037
:102400008B3279F038F4803279F08332A1F4232DC5
:1024100020611DC08D3261F0803369F4232D21606D
:1024200016C0832D8260382EE32DE4603E2E2AC034
:10243000F32DF8601DC037FC2DC020ED280F2A3089
:1024400040F08E32B9F436FC81C1232D2064322E47
:1024500019C036FE06C08AE0989E200D1124922EE7
:1024600011C0EAE02E9E200D1124222EF32DF062E1
:102470003F2E08C08C3621F4832D8068382E02C090
:10248000883641F4F70193FD859193FF81917F0197
:102490008111B3CF982F9F7D9554933028F40C5F12
:1024A0001F4F9FE399830DC0833631F0833771F05E
:1024B000833509F059C021C0F801808189830E5FFE
:1024C0001F4F88248394912C530113C02801F2E0FC
:1024D0004F0E511CF801A080B18036FE03C0692D5B
:1024E00070E002C06FEF7FEFC5010E94BB134C018B
:1024F0008201F32DFF773F2E16C0280122E0420E05
:10250000511CF801A080B18036FE03C0692D70E037
:1025100002C06FEF7FEFC5010E94B0134C01F32D95
:10252000F0683F2E820133FC1BC0822D90E088169C
:102530009906B0F4B60180E290E00E94C6132A9496
:10254000F4CFF50137FC859137FE81915F01B6012B
:1025500090E00E94C61321102A9421E0821A91086B
:102560008114910471F7E8C0843611F0893641F581
:10257000F80137FE07C060817181828193810C5F11
:102580001F4F08C060817181072E000C880B990BCA
:102590000E5F1F4FF32DFF763F2E97FF09C09095DA
:1025A0008095709561957F4F8F4F9F4FF0683F2EBC
:1025B0002AE030E0A3010E940214882E861845C04C
:1025C000853731F4232D2F7EB22E2AE030E025C04E
:1025D000932D997FB92E8F36C1F018F4883579F094
:1025E000B5C0803719F0883721F0B0C0E92FE0611D
:1025F000BE2EB4FE0DC0FB2DF460BF2E09C034FE0C
:102600000AC0292F2660B22E06C028E030E005C09F
:1026100020E130E002C020E132E0F801B7FE07C05F
:1026200060817181828193810C5F1F4F06C0608140
:10263000718180E090E00E5F1F4FA3010E940214A1
:10264000882E8618FB2DFF773F2E36FE0DC0232DDA
:102650002E7FA22E891458F434FE0BC032FC09C020
:10266000832D8E7EA82E05C0B82CA32C03C0B82CB9
:1026700001C0B92CA4FE0FC0FE01E80DF11D808140
:10268000803321F49A2D997EA92E09C0A2FE06C09E
:10269000B394B39404C08A2D867809F0B394A3FC54
:1026A00011C0A0FE06C0B21488F4280C922C9B180E
:1026B0000EC0B21460F4B60180E290E00E94C6132E
:1026C000B394F7CFB21418F42B1802C0982C212C15
:1026D000A4FE10C0B60180E390E00E94C613A2FEE3
:1026E00017C0A1FC03C088E790E002C088E590E035
:1026F000B6010CC08A2D867859F0A1FE02C08BE28B
:1027000001C080E2A7FC8DE2B60190E00E94C613F2
:10271000891438F4B60180E390E00E94C6139A94BD
:10272000F7CF8A94F301E80DF11D8081B60190E0A6
:102730000E94C6138110F5CF222009F442CEB601C3
:1027400080E290E00E94C6132A94F6CFF6018681BB
:10275000978102C08FEF9FEF2B96E2E10C94DF147C
:10276000FC010590615070400110D8F7809590955C
:102770008E0F9F1F0895FC01615070400190011061
:10278000D8F7809590958E0F9F1F08950F931F93F4
:10279000CF93DF93FB01238121FD03C08FEF9FEFD8
:1027A0002CC022FF16C046815781248135814217F3
:1027B000530744F4A081B1819D012F5F3F4F3183C6
:1027C00020838C93268137812F5F3F4F3783268369
:1027D00014C08B01EC01FB010084F185E02D09950B
:1027E000892BE1F6D80116968D919C911797019649
:1027F00017969C938E931697CE01DF91CF911F91E0
:102800000F910895FA01AA27283051F1203181F162
:10281000E8946F936E7F6E5F7F4F8F4F9F4FAF4FE8
:10282000B1E03ED0B4E03CD0670F781F891F9A1FFB
:10283000A11D680F791F8A1F911DA11D6A0F711DAF
:10284000811D911DA11D20D009F468943F912AE0BB
:10285000269F11243019305D3193DEF6CF010895A3
:10286000462F4770405D4193B3E00FD0C9F7F6CFD4
:10287000462F4F70405D4A3318F0495D31FD40529C
:10288000419302D0A9F7EACFB4E0A6959795879532
:1028900077956795BA95C9F7009761057105089511
:1028A0009B01AC010A2E06945795479537952795BD
:1028B000BA95C9F7620F731F841F951FA01D089555
:1028C000F999FECF92BD81BDF89A992780B50895F8
:1028D000A6E1B0E044E050E00C94B514A8E1B0E00B
:1028E00042E050E00C94B514262FF999FECF92BD2A
:1028F00081BDF89A019700B4021639F01FBA20BDC5
:102900000FB6F894FA9AF99A0FBE08950396272FF6
:102910000E9475140E947414252F0E947514242F90
:102920000C9475140196272F0E9475140C9474143E
:10293000262FF999FECF1FBA92BD81BD20BD0FB6DB
:10294000F894FA9AF99A0FBE01960895242F0E94DE
:102950009914252F0E9499140C94AE140E94981477
:10296000272F0C949914DC01CB01FC01F999FECFBF
:1029700006C0F2BDE1BDF89A319600B40D92415007
:102980005040B8F708952F923F924F925F926F9206
:102990007F928F929F92AF92BF92CF92DF92EF92EF
:1029A000FF920F931F93CF93DF93CDB7DEB7CA1B70
:1029B000DB0B0FB6F894DEBF0FBECDBF09942A889B
:1029C000398848885F846E847D848C849B84AA8443
:1029D000B984C884DF80EE80FD800C811B81AA81D0
:1029E000B981CE0FD11D0FB6F894DEBF0FBECDBF9B
:0829F000ED010895F894FFCFFA
:1029F80001010000000100493D2530337541205593
:102A08003D253032755620412A68002530326C75D4
:102A18003A253032753A202020202530366C750052
:102A28002530326C753A20203A2530326420202532
:102A380030366C750020203A253032753A25303210
:102A48006420202530366C75002530326C753A25A7
:102A58003032753A2530326420202530366C7500C6
:102A68002D2D3A2D2D3A2D2D20202530366C750030
:102A7800444541442054494D453D253034756D73D6
:102A880000443D25303275252520463D25303264E9
:102A98002E25303164487A20200044454144205492
:102AA800494D453D202020206D7300443D2530329E
:102AB80075252520463D20202020487A20200044E6
:102AC8003D2020252520463D253032642E253031F5
:102AD80064487A202000444541442054494D453DEE
:102AE8002D2D2D2D6D7300443D2D2D252520463D82
:0A2AF8002D2D2E2D487A202000001D
:00000001FF
