:100000000C9434000C9451000C9451000C94510049
:100010000C9451000C9451000C9451000C9451001C
:100020000C9451000C9451000C9451000C9451000C
:100030000C9451000C9451000C94BB010C94510091
:100040000C9451000C9451000C9451000C945100EC
:100050000C9451000C94E0010C9451000C9451004C
:100060000C9451000C94510011241FBECFEFD8E026
:10007000DEBFCDBF12E0A0E0B1E0ECE3F9E202C0E8
:1000800005900D92AA30B107D9F722E0AAE0B2E0BC
:1000900001C01D92A63CB207E1F70E94BE0E0C946F
:1000A0009C140C940000569857985E9A5F9A549846
:1000B00055985C9A5D9A089599B196FB332730F96B
:1000C0004F99326020910B02822F8370381769F0AC
:1000D00044E0249FC0011124932F982B90930B028E
:1000E000913E29F081E0923D19F080E008958FEF74
:1000F000089599B194FB332730F94D9932602091DE
:100100000A02822F8370381769F044E0249FC001EF
:100110001124932F982B90930A02913E29F081E0AD
:10012000923D19F080E008958FEF089594B19760A3
:1001300094B997B19C6397B92998662311F0289ACE
:1001400001C0289898B1937C98B983FD459A82FDA7
:10015000449A81FD439A80FD429A2A9A8AE18A95BF
:10016000F1F700C02A98089594B1976094B9299A3C
:10017000882311F0289A01C028982A9A87B1837C95
:1001800087B988B18C6388B98AE18A95F1F700C094
:100190002A98359B02C088E001C080E034998460D1
:1001A00033998260329981600895CF93DF93C82F8D
:1001B0000E94B400D82FD295D07F8C2F0E94B4001B
:1001C0008D2BDF91CF910895CF93DF93C82FD62F3A
:1001D00082958F700E9496006D2F8C2FDF91CF91AA
:1001E0000C94960080E00E94D500880F880B08953B
:1001F00060E083E00E9496008FE19EE40197F1F7B2
:1002000000C0000060E083E00E94960087EB91E070
:100210000197F1F700C0000060E083E00E949600C3
:100220000E94F2008111FCCF60E082E00E94960003
:100230000E94F2008111FCCF60E088E20E94E4009D
:100240000E94F2008111FCCF60E081E00E94E40096
:100250000E94F2008111FCCF60E086E00E94E40081
:100260000E94F2008111FCCF60E08CE00C94E4006D
:10027000CF93DF93D82FC62F0E94F2008111FCCFBD
:100280008C2F90E4D99F800D112460E080680E943B
:10029000E400C0E00E94F200882311F0C1E0FACF30
:1002A0008C2FDF91CF9108950F931F93CF93DF93FE
:1002B000EC018E018881882359F00E94F20081119F
:1002C000FCCF219661E0F80180810E94E400F1CF2B
:1002D000DF91CF911F910F91089582E084BD93E04B
:1002E00095BD80936E008AEF87BD08952FB7F8946F
:1002F00060910C0270910D0280910E0290910F029C
:100300002FBF0895E4E6F0E080818F7D8083EEE6E4
:10031000F0E080818260808308958FB7F894109216
:100320000C0210920D0210920E0210920F028FBF5B
:100330000895CF92DF92EF92FF922FB7F894C0907A
:100340000C02D0900D02E0900E02F0900F02DC0142
:10035000CB018C0D9D1DAE1DBF1D80930C02909393
:100360000D02A0930E02B0930F022FBFFF90EF90EB
:10037000DF90CF9008951F920F920FB60F92112425
:100380008F939F93AF93BF9380910C0290910D0236
:10039000A0910E02B0910F020196A11DB11D809394
:1003A0000C0290930D02A0930E02B0930F02BF9126
:1003B000AF919F918F910F900FBE0F901F90189546
:1003C00018954F925F926F927F928F929F92AF9209
:1003D000BF92CF92DF92EF92FF92CF93DF939DE097
:1003E00088E10FB6F894A895809360000FBE9093B3
:1003F0006000A8952FEF80E792E021508040904068
:10040000E1F700C000000E94F800A89580E090E0AD
:100410000E940A146093A9027093AA028093AB020F
:100420009093AC0286E090E00E940214813019F4AF
:100430008093850205C061E086E090E00E943A1456
:1004400087E090E00E940A146093B3027093B402B4
:100450008093B5029093B6028091A9029091AA026E
:10046000A091AB02B091AC020A97A109B109863301
:100470009E47A540B105A0F08AE090E0A0E0B0E082
:100480008093A9029093AA02A093AB02B093AC020E
:100490004AE050E060E070E080E090E00E944814A4
:1004A0008091B3029091B402A091B502B091B602CE
:1004B00080349244AF40B105A0F082E390E0A0E028
:1004C000B0E08093B3029093B402A093B502B093CE
:1004D000B60244EF51E060E070E087E090E00E94F7
:1004E00048148CE090E00E940214813019F480934B
:1004F0008D0205C061E08CE090E00E943A148DE02E
:1005000090E00E9410149093A4028093A30281E1D2
:1005100090E00E94021496EF980F913518F48093A2
:10052000BB0208C082E38093BB0262E381E190E0FA
:100530000E943A1482E190E00E941014BC0180E015
:1005400090E00E94E80F20E030E040E251E40E9499
:10055000400F6B017C0120E030E040E251E40E945A
:100560009A1018169CF02DEC3CEC4CE45EE3C701AD
:10057000B6010E943B0F87FD09C0C092A502D09230
:10058000A602E092A702F092A80211C080E090E0DB
:10059000A0E8BFE38093A5029093A602A093A702D0
:1005A000B093A8026AE082E190E00E943A142091A0
:1005B000A5023091A6024091A7025091A80260E0E6
:1005C00070E080E89FE30E94400F20E030E04AE7BF
:1005D00054E40E949F100E94B90F7093C30260936D
:1005E000C20280E090E00E94E80F4B015C01609144
:1005F000BB0270E080E090E00E94E80F20E030E075
:1006000048EC52E40E94400F2B013C019B01AC01DD
:10061000C501B4010E949F100E94B90F6B017C01BB
:10062000EB017093C5026093C402A301920160E0E4
:1006300070E080E89FE30E94CE0EA50194010E9425
:100640009F100E94B90FAB017093C1026093C0026A
:100650002AE0C21AD1082091A3023091A402C21646
:10066000D30628F0FB013A97E217F30780F4C4178A
:10067000D50720F06B012AE0C21AD108D092A4025B
:10068000C092A302B6018DE090E00E9450140E9437
:100690006D010E948201259A2D9A399A419A389AC1
:1006A000409A239A2B9A519A599A509A589A52984A
:1006B0005A9A24982C9A53985B9A0E94530010924D
:1006C000AE0283E08093AD0283B7817F826083BFF7
:1006D00083B7816083BF7894DF91CF91FF90EF90D3
:1006E000DF90CF90BF90AF909F908F907F906F9052
:1006F0005F904F9008952F923F924F925F926F922A
:100700007F928F929F92AF92BF92CF92DF92EF92A1
:10071000FF920F931F93CF93DF93CDB7DEB7A297CE
:100720000FB6F894DEBF0FBECDBF8091AD02882317
:1007300009F4EAC18091AE028111E6C18091000105
:100740009E012E5E3F4F79018E010F5F1F4F81305A
:1007500009F022C180918202882349F0D090B3022F
:10076000C090B402B090B502A090B60208C0D0907C
:100770009202C0909302B0909402A0909502809152
:1007800099028F93809198028F93809197028F9313
:10079000809196028F9387E091E09F938F93FF92D1
:1007A000EF920E944F110FB6F894DEBF0FBECDBF7F
:1007B00080918502882309F497C08091840240903B
:1007C000A9025090AA026090AB027090AC028823FC
:1007D00079F00E94760128EE33E040E050E00E947C
:1007E0000C1112012301221A330A440A550A02C0CD
:1007F00012012301C201B10120E13EE040E050E0DE
:100800000E940C11922E832E742E652EA0E1BEE064
:100810000E942E11261A370A480A590AC201B1014C
:100820002CE330E040E050E00E940C11822F922F28
:10083000622D4CE3249F601911242091830222230E
:10084000F1F140910501509106014130510569F4E3
:10085000AF92BF92CF92DF923F938F936F927F922E
:100860008F929F928BE191E00FC04C33510599F428
:10087000AF92BF92CF92DF921F926F936F927F924F
:100880008F929F9280E391E09F938F931F930F939A
:100890000E944F1135C040315E4089F4AF92BF9243
:1008A000CF92DF921F926F933F938F9385E491E0F5
:1008B0009F938F931F930F930E944F1121C0AF926C
:1008C000BF92CF92DF921F926F933F939F936F924D
:1008D0007F928F929F9289E591E09F938F931F93D0
:1008E0000F930E944F110CC0AF92BF92CF92DF9234
:1008F00080E791E09F938F931F930F930E944F1176
:100900000FB6F894DEBF0FBECDBF80918202882360
:1009100009F4DAC09EE39A87823009F0D5C080914D
:10092000010190910201A0910301B091040184366C
:100930009105A105B10539F168F481309105A10552
:10094000B105F1F00A97A105B10509F0BDC080E23B
:100950008F87BAC0803127E29207A105B105B1F0B7
:10096000803A36E8930731E0A307B10591F0883E5D
:100970009340A105B10509F0A7C080E28D87A4C00E
:1009800080E2888BA1C080E28E879EC080E28C8747
:100990009BC080E28B8798C080918D02882309F4E8
:1009A00082C04090A5025090A6026090A70270906D
:1009B000A802C301B2010E94B20F4B015C01072ED5
:1009C000000C880B990B0E94EA0F9B01AC01C3013C
:1009D000B2010E94CE0E20E030E040E251E40E94DD
:1009E0009F100E94B20FD62EC72E8091A4028F9323
:1009F0008091A3028F9380E891E09F938F93FF9261
:100A0000EF920E944F11CF92DF929F928F9280912E
:100A1000BB021F928F9381E991E09F938F931F9365
:100A20000F930E944F110FB6F894DEBF0FBECDBFDB
:100A300080918302882309F447C080918102882332
:100A400009F442C08430E9F0883041F08230E1F5A9
:100A50006AEA71E0C7010E94481136C08091BB026A
:100A60001F928F938BEB91E09F938F931F930F9324
:100A70000E944F110F900F900F900F900F900F90BA
:100A800023C0CF92DF929F928F928FEC91E09F9341
:100A90008F931F930F930E944F110FB6F894DEBFF0
:100AA0000FBECDBF11C066EE71E0C9010E944811B2
:100AB00087EF91E09F938F931F930F930E944F11A5
:100AC0000F900F900F900F901AA2198A60E080E0AB
:100AD0000E943801811105C00E94F80081E08093D6
:100AE000AD02C7010E94540160E081E00E9438011C
:100AF000811105C00E94F80081E08093AD02C80119
:100B00000E9454011092AD02A2960FB6F894DEBF77
:100B10000FBECDBFDF91CF911F910F91FF90EF904E
:100B2000DF90CF90BF90AF909F908F907F906F900D
:100B30005F904F903F902F90089580918402811193
:100B400021C0809105019091060180312EE092072D
:100B500039F481E090E090930601809305010AC08A
:100B60004CE3489F9001499F300D112430930601BA
:100B70002093050181E0809383028091AD0280681B
:100B80008093AD02089520910101309102014091BE
:100B9000030150910401203A86E8380781E04807B4
:100BA000510569F481E090E0A0E0B0E0809301019C
:100BB00090930201A0930301B09304010CC0AAE03A
:100BC000B0E00E942E1160930101709302018093A6
:100BD0000301909304011092BC021092BD02109286
:100BE000BE021092BF028091AD0280688093AD0278
:100BF000089560919F027091A0028091A10290914E
:100C0000A2020E94E80F20E030E84CE853E40E9482
:100C1000CF0E0E94B90F60939F027093A002809341
:100C2000A1029093A20280919F029091A002A091B4
:100C3000A102B091A20280389E43A105B105D8F06F
:100C400061E070E080E090E00E94990180919F0255
:100C50009091A002A091A102B091A20280589E435F
:100C6000A109B10980939F029093A002A093A102D1
:100C7000B093A202D8CF0895CF93DF9380937C00E6
:100C800084EC80937A0080917A00886080937A0067
:100C9000889580917A0086FDFBCF80917A00877FCE
:100CA00080937A00D0917800C09179000E94F90574
:100CB0008C2F90E0982F88278D0F911DDF91CF9179
:100CC0000895CF92DF92EF92FF920F931F9380913E
:100CD0008302811105C01092800210927F0217C01A
:100CE00080917F0290918002019690938002809380
:100CF0007F028031974258F0109283021092800256
:100D000010927F028091AD0280688093AD02809145
:100D10008202811109C01092BC021092BD02109291
:100D2000BE021092BF0254C08091BC029091BD02DD
:100D3000A091BE02B091BF02AC01BD014F5F5F4FF9
:100D40006F4F7F4F4093BC025093BD026093BE0231
:100D50007093BF028F509742A109B109803791412A
:100D6000A140B10548F481E0809382028091AD02F8
:100D700080688093AD022CC04038584361407105B3
:100D800038F11092820281E090E0A0E0B0E0809320
:100D9000010190930201A0930301B093040110920A
:100DA000BC021092BD021092BE021092BF0280914E
:100DB000AD0280688093AD024091B3025091B402BD
:100DC0006091B5027091B60287E090E00E9428140D
:100DD00080918A02811105C010927E0210927D02DC
:100DE00089C080917D0290917E02019690937E024F
:100DF00080937D028035934C08F47CC00E9476017C
:100E0000C0908E02D0908F02E0909002F0909102FC
:100E10006C197D098E099F090E94E80F20E03AEBCA
:100E20004BE55AE40E94400F6B017C0160919602F1
:100E30007091970280E090E00E94E80F9B01AC0166
:100E4000C701B6010E949F102091790230917A0269
:100E500040917B0250917C020E94CF0E6B017C017D
:100E60006093790270937A0280937B0290937C0264
:100E700020E030E0A9010E949A10181644F5C7013D
:100E8000B6010E94B90F0091920210919302209135
:100E9000940230919502060F171F281F391F0093E7
:100EA00092021093930220939402309395020E9431
:100EB000E80F9B01AC01C701B6010E94CE0E609302
:100EC000790270937A0280937B0290937C020E9455
:100ED000760160938E0270938F02809390029093BC
:100EE000910210927E0210927D028091AD02806488
:100EF0008093AD0220918402211105C010927802E6
:100F00001092770224C08091770290917802019626
:100F1000883833E1930728F490937802809377021E
:100F200016C0223031F0803137E29307A8F3213028
:100F300099F71092780210927702809186028823A6
:100F400019F01092860203C081E08093860280919E
:100F5000B3029091B402A091B502B091B60200978D
:100F6000A105B10539F120918A02222319F140919E
:100F700092025091930260919402709195024817E9
:100F800059076A077B07B0F080917502909176024D
:100F90000196883823E1920728F490937602809393
:100FA00075020EC0109276021092750280918B022B
:100FB000882319F010928B0203C081E080938B028A
:100FC00080917302909174020196909374028093C1
:100FD0007302883B9B4031F41092740210927302AA
:100FE0000E947B0380919B0290919C02A0919D02A4
:100FF000B0919E020097A105B10509F45AC001966F
:10100000A11DB11D803523EC9207A105B10549F062
:1010100080939B0290939C02A0939D02B0939E02AA
:1010200048C010929B0210929C0210929D02109256
:101030009E0280919A0280FF0CC04091A9025091BB
:10104000AA026091AB027091AC0280E090E00E9435
:10105000281480919A0281FF08C06091A3027091C8
:10106000A4028DE090E00E94341480919A0282FFE5
:1010700006C06091BB0281E190E00E94161480914D
:101080009A0283FF14C020E030E040E251E4609116
:10109000A5027091A6028091A7029091A8020E94D9
:1010A0009F100E94B90F82E190E00E9434141092C8
:1010B0009A021F910F91FF90EF90DF90CF900895CB
:1010C0008F929F92AF92BF92CF92DF92EF92FF9258
:1010D0002091A5023091A6024091A7025091A8024A
:1010E00060E070E080E89FE30E94400F20E030E085
:1010F0004AE754E40E949F100E94B90F6B017C01E3
:101100007093C3026093C2026091BB0270E080E002
:1011100090E00E94E80F20E030E048EC52E40E94AA
:10112000400F4B015C01B60180E090E00E94E80FA7
:101130009B01AC01C501B4010E949F100E94B90F30
:101140007093C5026093C402C61AD70AD092C10236
:10115000C092C002FF90EF90DF90CF90BF90AF9011
:101160009F908F900895CF92DF92EF92FF92CF934E
:101170000E94790090E020910001213009F07DC0AB
:101180008F3F9105C1F58091B3029091B402A09177
:10119000B502B091B6020097A105B10509F467C088
:1011A000409101015091020160910301709104018D
:1011B00084179507A607B70748F41092B302109258
:1011C000B4021092B5021092B6020CC0841B950BAB
:1011D000A60BB70B8093B3029093B402A093B50211
:1011E000B093B6028091AD0282608093AD0281E03F
:1011F0008093820234C00197D1F54091B30250919F
:10120000B4026091B5027091B6024F3332E45307D5
:101210003FE06307710558F580910101909102014B
:10122000A0910301B0910401840F951FA61FB71F61
:10123000803432E493073FE0A307B10508F0ADC165
:101240008093B3029093B402A093B502B093B60218
:101250008091AD0282608093AD0220938202109251
:10126000BC021092BD021092BE021092BF02809189
:101270008402882309F4DEC090C1223009F0DAC06C
:1012800020918D02222309F488C120918102C0910E
:101290009A02243009F479C0283089F1223009F00B
:1012A0009DC08130910531F48091A3029091A402F8
:1012B00001960CC08F3F910509F090C08091A30268
:1012C0009091A402009709F489C001979093A40219
:1012D0008093A302C260C0939A0281E090E0A0E0F4
:1012E000B0E080939B0290939C02A0939D02B093E8
:1012F0009E028091AD0282608093AD026FC081300A
:101300009105D9F4C090A502D090A602E090A70262
:10131000F090A80220E030E040E251E4C701B601BD
:101320000E943B0F87FF5AC02DEC3CEC4CEC5DE378
:10133000C701B6010E94CF0E1EC08F3F910509F074
:101340004DC0C090A502D090A602E090A702F090F8
:10135000A8022DEC3CEC4CE45EE3C701B6010E9410
:101360009A101816DCF52DEC3CEC4CEC5DE3C70153
:10137000B6010E94CE0E6093A5027093A6028093E0
:10138000A7029093A802C86014C08130910531F47F
:101390008091BB028A3510F58F5F08C08F3F9105A1
:1013A000E9F48091BB028B30C8F081508093BB027E
:1013B000C460C0939A0281E090E0A0E0B0E0809326
:1013C0009B0290939C02A0939D02B0939E028091F9
:1013D000AD0282608093AD020E94600880919A0203
:1013E000882341F19091AD02992321F16091C402CB
:1013F0007091C5029B012A503109E091A302F0913E
:10140000A4024091C0025091C1022E173F0728F05C
:10141000DA011A97AE17BF0768F46417750718F05A
:101420009A012A5031093093A4022093A3028260CA
:1014300080939A020E945C0090E02091000121308C
:1014400009F085C08F3F910509F044C08091A90241
:101450009091AA02A091AB02B091AC028B309105A1
:10146000A105B10508F499C040910501509106010C
:1014700060E070E06C017D012AE0C21AD108E10849
:10148000F108C416D506E606F70608F486C0841BE4
:10149000950BA60BB70B8093A9029093AA02A09379
:1014A000AB02B093AC028091AD0282608093AD023A
:1014B00080919A02816080939A0281E090E0A0E09E
:1014C000B0E080939B0290939C02A0939D02B09306
:1014D0009E0263C0019709F060C08091A9029091BB
:1014E000AA02A091AB02B091AC028F333EE7930702
:1014F00035E0A307B10508F050C0209105013091F7
:101500000601820F931FA11DB11D80342EE79207A3
:1015100025E0A207B10508F040C08093A90290938E
:10152000AA02A093AB02B093AC0281E090E0A0E0ED
:10153000B0E080939B0290939C02A0939D02B09395
:101540009E0280919A02816080939A0221C022308B
:1015500021F530918D02332301F18130910541F461
:1015600080918102823011F488E00DC086950BC015
:101570008F3F910591F480918102883019F4209376
:10158000810203C0880F8093810281E080938302EF
:101590008091AD0282608093AD02CF91FF90EF9079
:1015A000DF90CF9008950F931F9380918402813034
:1015B000D9F40E94760128EE33E040E050E00E942A
:1015C0000C118091A9029091AA02A091AB02B09156
:1015D000AC024E97A109B109281739074A075B07E2
:1015E00018F082E0809384028091840290918502B9
:1015F000811105C0992329F021E0209386029111E1
:1016000002C0109286028823F1F00E94760128EE33
:1016100033E040E050E00E940C118091A9029091CB
:10162000AA02A091AB02B091AC02281739074A0771
:101630005B0748F01092840210928A028091AD02FA
:1016400088608093AD0280918A02882309F4D1C01A
:1016500080918D02882309F4C8C080918C02823069
:10166000D1F130F4882309F4AEC0813041F0C9C013
:10167000833009F45EC0843009F489C0C2C00E947E
:10168000760100916F0210917002209171023091E9
:101690007202AB01BC01401B510B620B730B8091BA
:1016A000C4029091C502A0E0B0E0481759076A074C
:1016B0007B0708F4A6C00E94760160936F027093C6
:1016C0007002809371029093720282E080938C0288
:1016D0001092880259C00E94760100916F02109109
:1016E00070022091710230917202AB01BC01401B6B
:1016F000510B620B730B8091A3029091A40201968F
:10170000A0E0B0E0481759076A077B0708F479C0E2
:101710000E94760160936F02709370028093710251
:101720009093720283E080938C0281E08093870221
:1017300059C00E94760100916F02109170022091B1
:10174000710230917202AB01BC01401B510B620B64
:10175000730B8091C0029091C102A0E0B0E04817E5
:1017600059076A077B0708F44CC00E947601609312
:101770006F0270937002809371029093720284E002
:1017800080938C0210928702109289023AC00E94C4
:10179000760100916F0210917002209171023091D8
:1017A0007202AB01BC01401B510B620B730B8091A9
:1017B000A3029091A4020196A0E0B0E04817590757
:1017C0006A077B07F0F00E94760160936F027093C6
:1017D0007002809371029093720281E080938C0278
:1017E00080938802809389020CC081E080938902F3
:1017F00002C01092890210928C02109288021092FC
:10180000870280918402882329F08091AD02806153
:101810008093AD021F910F910895809189028823D2
:1018200019F02D982B9A02C02D9A2B98809188023E
:10183000882311F0419A01C0419880918702882342
:1018400011F0409A01C0409880918B02882311F0DA
:10185000599A01C0599880918602882311F0589AAC
:101860000895589808950F931F93CF9380916D0218
:1018700090916E02019690936E0280936D02883C67
:10188000910509F091C080918A02882309F47CC0F7
:10189000C0916C02C83208F45BC0ECE1F2E080E079
:1018A00090E00196DF019C016081718112964D915B
:1018B0005C9113974617570730F413967C936E93F9
:1018C0001297518340832F5F3F4F12962832310584
:1018D00059F732968732910521F7809198029091BD
:1018E0009902892B09F18091440290914502A0E070
:1018F000B0E08A309105A105B105C8F0409196028B
:101900005091970260E070E0481B590B6A0B7B0B0B
:101910004330510561057105C0F0873E23E0920711
:10192000A105B10548F403C080E090E0DC0190938C
:1019300097028093960204C010929702109296022A
:101940008091AD0280618093AD0210926C0228C03C
:1019500086E490E00E943C06EC2FF0E0EE0FFF1FC3
:10196000E45EFD4F20911A0230911B02821B930B03
:1019700096958795969587959183808380916C0243
:101980008F5F80936C020CC086E490E00E943C065E
:1019900090931B0280931A02109297021092960263
:1019A00010926E0210926D0280916D0290916E0203
:1019B0008436910561F587E490E00E943C06BC0105
:1019C000990F880B990B0E94EA0F2AE037ED43E24A
:1019D00051E40E94400F0E94B90F2091980230916B
:1019E0009902261B370B2230310588F062307105D1
:1019F00028F4109299021092980204C070939902F0
:101A0000609398028091AD0280618093AD020E9444
:101A10007601009116021091170220911802309160
:101A20001902DC01CB01801B910BA20BB30B853695
:101A30009105A105B10530F180911502882311F1BE
:101A4000109215020E948D0110928E0210928F0248
:101A5000109290021092910280918A02882329F0BC
:101A600010928A021092840208C081E080938A0258
:101A7000909185029111809384028091AD028460DF
:101A80008093AD024A9B09C080911402882329F0FB
:101A9000109214021092150215C04A9913C0809139
:101AA000140281110FC00E94760160931602709398
:101AB0001702809318029093190281E08093140218
:101AC00080931502CF911F910F9108958F929F924D
:101AD000AF92BF92CF92DF92EF92FF92CF930E948C
:101AE0007601C090AF02D090B002E090B102F090C9
:101AF000B2024B015C018C189D08AE08BF080E9421
:101B00007601C090B702D090B802E090B902F09090
:101B1000BA029B01AC012C193D094E095F0969010C
:101B20007A0139EE831633E09306A104B10408F478
:101B30005AC080911302882309F455C010921302F1
:101B4000C091000145E6C416D104E104F10450F04F
:101B500080911202882331F010921202C13009F0F4
:101B600096C08FC0C13051F5909185028091AD0231
:101B7000992341F01092850280618093AD0210920A
:101B8000840215C0C093850280618093AD0280916C
:101B90008A02882361F00E948D0110928E021092B9
:101BA0008F021092900210929102C0938402609171
:101BB000850286E090E00E94161415C080918D0287
:101BC000882321F010928D0260E004C081E08093B0
:101BD0008D0261E08CE090E00E9416148091AD02CD
:101BE00080618093AD021C9B1AC0809111028823F2
:101BF000B1F0D501C40185569109A109B109833815
:101C00009340A105B10530F480910001813011F4B9
:101C10000E949D05109211021092130215C01C998A
:101C200013C08091110281110FC00E947601609350
:101C3000AF027093B0028093B1029093B20281E040
:101C4000809311028093130289EEC81683E0D806B0
:101C5000E104F10488F180911202882369F1109265
:101C600012028091000195E689169104A104B10445
:101C7000C8F0909113029923A9F0109213028130B9
:101C800031F482E0809300018093810205C081E0FD
:101C900080930001109281028091AD028068809350
:101CA000AD0262C0813041F4109292021092930210
:101CB00010929402109295024B9B41C080911002A9
:101CC0008823E9F125E6C21AD108E108F10833E8D2
:101CD000C31633E0D306E104F10460F590910001EE
:101CE000913081F480918202811106C0909382022A
:101CF0008091AD0280681CC082E0809382020E94C5
:101D0000C30518C09230B1F480918D02882391F000
:101D100080918102883019F49093810203C0880F6A
:101D20008093810281E0809383028091AD02826082
:101D30008093AD02109210021092120215C04B99BE
:101D400013C08091100281110FC00E947601609330
:101D5000B7027093B8028093B9029093BA0281E0FF
:101D60008093100280931202CF91FF90EF90DF904A
:101D7000CF90BF90AF909F908F9008950E94E10107
:101D8000A8950E94B3080E94660D0E9461060E94F9
:101D9000330C0E94D30A0E940D0CF2CF5058BB277F
:101DA000AA270E94E60E0C9460100E94521038F090
:101DB0000E94591020F039F49F3F19F426F40C9436
:101DC0004F100EF4E095E7FB0C944910E92F0E94A8
:101DD000711058F3BA17620773078407950720F04C
:101DE00079F4A6F50C9493100EF4E0950B2EBA2F0F
:101DF000A02D0B01B90190010C01CA01A001112411
:101E0000FF27591B99F0593F50F4503E68F11A16BC
:101E1000F040A22F232F342F4427585FF3CF46954D
:101E200037952795A795F0405395C9F77EF41F166F
:101E3000BA0B620B730B840BBAF09150A1F0FF0F39
:101E4000BB1F661F771F881FC2F70EC0BA0F621F25
:101E5000731F841F48F4879577956795B795F79515
:101E60009E3F08F0B0CF9395880F08F09927EE0FAA
:101E70009795879508950E94251008F481E00895AC
:101E80000E94540F0C9460100E94591058F00E9448
:101E9000521040F029F45F3F29F00C944910511181
:101EA0000C9494100C944F100E94711068F39923B5
:101EB000B1F3552391F3951B550BBB27AA27621746
:101EC0007307840738F09F5F5F4F220F331F441F53
:101ED000AA1FA9F335D00E2E3AF0E0E832D0915087
:101EE0005040E695001CCAF72BD0FE2F29D0660F74
:101EF000771F881FBB1F261737074807AB07B0E8B7
:101F000009F0BB0B802DBF01FF2793585F4F3AF0BC
:101F10009E3F510578F00C9449100C9494105F3F4B
:101F2000E4F3983ED4F3869577956795B795F79542
:101F30009F5FC9F7880F911D9695879597F908952A
:101F4000E1E0660F771F881FBB1F621773078407C6
:101F5000BA0720F0621B730B840BBA0BEE1F88F7D5
:101F6000E09508950E94B90F6894B1110C949410F3
:101F700008950E94791088F09F5798F0B92F9927FB
:101F8000B751B0F0E1F0660F771F881F991F1AF064
:101F9000BA95C9F714C0B13091F00E949310B1E026
:101FA00008950C949310672F782F8827B85F39F025
:101FB000B93FCCF3869577956795B395D9F73EF4FD
:101FC00090958095709561957F4F8F4F9F4F0895A5
:101FD000E89409C097FB3EF49095809570956195C3
:101FE0007F4F8F4F9F4F9923A9F0F92F96E9BB2779
:101FF0009395F695879577956795B795F111F8CFF5
:10200000FAF4BB0F11F460FF1BC06F5F7F4F8F4F5F
:102010009F4F16C0882311F096E911C0772321F055
:102020009EE8872F762F05C0662371F096E8862FED
:1020300070E060E02AF09A95660F771F881FDAF744
:10204000880F9695879597F90895990F0008550F71
:10205000AA0BE0E8FEEF16161706E807F907C0F02E
:1020600012161306E407F50798F0621B730B840B36
:10207000950B39F40A2661F0232B242B252B21F410
:1020800008950A2609F4A140A6958FEF811D811DB0
:10209000089597F99F6780E870E060E008959FEFEA
:1020A00080EC089500240A941616170618060906EF
:1020B000089500240A9412161306140605060895BE
:1020C000092E0394000C11F4882352F0BB0F40F446
:1020D000BF2B11F460FF04C06F5F7F4F8F4F9F4F86
:1020E000089557FD9058440F551F59F05F3F71F008
:1020F0004795880F97FB991F61F09F3F79F087956F
:102100000895121613061406551FF2CF4695F1DFF7
:1021100008C0161617061806991FF1CF8695710587
:10212000610508940895E894BB2766277727CB01BB
:1021300097F908950E94251008F48FEF08950E94E2
:10214000B2100C9460100E94521038F00E94591086
:1021500020F0952311F00C9449100C944F10112489
:102160000C9494100E94711070F3959FC1F3950F19
:1021700050E0551F629FF001729FBB27F00DB11D0B
:10218000639FAA27F00DB11DAA1F649F6627B00D9B
:10219000A11D661F829F2227B00DA11D621F739F84
:1021A000B00DA11D621F839FA00D611D221F749F92
:1021B0003327A00D611D231F849F600D211D822FD9
:1021C000762F6A2F11249F5750409AF0F1F0882300
:1021D0004AF0EE0FFF1FBB1F661F771F881F91502D
:1021E0005040A9F79E3F510580F00C9449100C9483
:1021F00094105F3FE4F3983ED4F386957795679506
:10220000B795F795E7959F5FC1F7FE2B880F911D56
:102210009695879597F90895A1E21A2EAA1BBB1BE4
:10222000FD010DC0AA1FBB1FEE1FFF1FA217B307A2
:10223000E407F50720F0A21BB30BE40BF50B661FB8
:10224000771F881F991F1A9469F76095709580957C
:1022500090959B01AC01BD01CF0108950E943911F9
:10226000A59F900DB49F900DA49F800D911D1124EA
:102270000895A29FB001B39FC001A39F700D811D5F
:102280001124911DB29F700D811D1124911D08957F
:10229000FB01DC0101900D920020E1F70895AEE012
:1022A000B0E0E5E5F1E10C9473140D891E8986E038
:1022B0008C831A8309838FEF9FE79E838D83AE0102
:1022C000475E5F4F6F89788DCE0101960E94711134
:1022D000EF81F885E00FF11F10822E96E4E00C9458
:1022E0008F14ABE0B0E0E7E7F1E10C9465146C010A
:1022F0007B018A01FC0117821682838181FFCCC198
:10230000CE0101963C01F6019381F70193FD859181
:1023100093FF81917F01882309F4BAC1853239F492
:1023200093FD859193FF81917F01853229F4B60158
:1023300090E00E946813E7CF912C212C312CFFE113
:10234000F315D8F08B3279F038F4803279F083329B
:10235000A1F4232D20611DC08D3261F0803369F41A
:10236000232D216016C0832D8260382EE32DE4607A
:102370003E2E2AC0F32DF8601DC037FC2DC020ED85
:10238000280F2A3040F08E32B9F436FC81C1232D5B
:102390002064322E19C036FE06C08AE0989E200DB9
:1023A0001124922E11C0EAE02E9E200D1124222E1F
:1023B000F32DF0623F2E08C08C3621F4832D806807
:1023C000382E02C0883641F4F70193FD859193FFC2
:1023D00081917F018111B3CF982F9F7D95549330C8
:1023E00028F40C5F1F4F9FE399830DC0833631F0B3
:1023F000833771F0833509F059C021C0F80180811D
:1024000089830E5F1F4F88248394912C530113C03E
:102410002801F2E04F0E511CF801A080B18036FE79
:1024200003C0692D70E002C06FEF7FEFC5010E940D
:102430005D134C018201F32DFF773F2E16C028015A
:1024400022E0420E511CF801A080B18036FE03C08C
:10245000692D70E002C06FEF7FEFC5010E9452133B
:102460004C01F32DF0683F2E820133FC1BC0822DFE
:1024700090E088169906B0F4B60180E290E00E94E0
:1024800068132A94F4CFF50137FC859137FE8191CA
:102490005F01B60190E00E94681321102A9421E0A8
:1024A000821A91088114910471F7E8C0843611F002
:1024B000893641F5F80137FE07C06081718182815C
:1024C00093810C5F1F4F08C060817181072E000C43
:1024D000880B990B0E5F1F4FF32DFF763F2E97FF52
:1024E00009C090958095709561957F4F8F4F9F4F54
:1024F000F0683F2E2AE030E0A3010E94A413882E4A
:10250000861845C0853731F4232D2F7EB22E2AE060
:1025100030E025C0932D997FB92E8F36C1F018F485
:10252000883579F0B5C0803719F0883721F0B0C010
:10253000E92FE061BE2EB4FE0DC0FB2DF460BF2E6E
:1025400009C034FE0AC0292F2660B22E06C028E03A
:1025500030E005C020E130E002C020E132E0F801C7
:10256000B7FE07C060817181828193810C5F1F4F2C
:1025700006C06081718180E090E00E5F1F4FA30173
:102580000E94A413882E8618FB2DFF773F2E36FE5F
:102590000DC0232D2E7FA22E891458F434FE0BC0BB
:1025A00032FC09C0832D8E7EA82E05C0B82CA32C2A
:1025B00003C0B82C01C0B92CA4FE0FC0FE01E80D69
:1025C000F11D8081803321F49A2D997EA92E09C0B6
:1025D000A2FE06C0B394B39404C08A2D867809F095
:1025E000B394A3FC11C0A0FE06C0B21488F4280C5A
:1025F000922C9B180EC0B21460F4B60180E290E0F9
:102600000E946813B394F7CFB21418F42B1802C0C9
:10261000982C212CA4FE10C0B60180E390E00E940B
:102620006813A2FE17C0A1FC03C088E790E002C0B7
:1026300088E590E0B6010CC08A2D867859F0A1FE9D
:1026400002C08BE201C080E2A7FC8DE2B60190E0FF
:102650000E946813891438F4B60180E390E00E9468
:1026600068139A94F7CF8A94F301E80DF11D8081E5
:10267000B60190E00E9468138110F5CF222009F482
:1026800042CEB60180E290E00E9468132A94F6CF11
:10269000F6018681978102C08FEF9FEF2B96E2E1D2
:1026A0000C948114FC010590615070400110D8F722
:1026B000809590958E0F9F1F0895FC01615070408A
:1026C00001900110D8F7809590958E0F9F1F089567
:1026D0000F931F93CF93DF93FB01238121FD03C051
:1026E0008FEF9FEF2CC022FF16C0468157812481B7
:1026F00035814217530744F4A081B1819D012F5FBA
:102700003F4F318320838C93268137812F5F3F4F4A
:102710003783268314C08B01EC01FB010084F18513
:10272000E02D0995892BE1F6D80116968D919C91A3
:102730001797019617969C938E931697CE01DF916B
:10274000CF911F910F910895FA01AA27283051F1D6
:10275000203181F1E8946F936E7F6E5F7F4F8F4FD2
:102760009F4FAF4FB1E03ED0B4E03CD0670F781F31
:10277000891F9A1FA11D680F791F8A1F911DA11D16
:102780006A0F711D811D911DA11D20D009F468944F
:102790003F912AE0269F11243019305D3193DEF6F7
:1027A000CF010895462F4770405D4193B3E00FD0AD
:1027B000C9F7F6CF462F4F70405D4A3318F0495D98
:1027C00031FD4052419302D0A9F7EACFB4E0A6957B
:1027D0009795879577956795BA95C9F7009761059D
:1027E000710508959B01AC010A2E069457954795F3
:1027F00037952795BA95C9F7620F731F841F951FE8
:10280000A01D0895F999FECF92BD81BDF89A992730
:1028100080B50895A6E1B0E044E050E00C94571470
:10282000A8E1B0E042E050E00C945714262FF9994B
:10283000FECF92BD81BDF89A019700B4021639F01F
:102840001FBA20BD0FB6F894FA9AF99A0FBE0895F0
:102850000396272F0E9417140E941614252F0E94FA
:102860001714242F0C9417140196272F0E94171465
:102870000C941614262FF999FECF1FBA92BD81BD74
:1028800020BD0FB6F894FA9AF99A0FBE01960895F2
:10289000242F0E943B14252F0E943B140C945014AB
:1028A0000E943A14272F0C943B14DC01CB01FC014D
:1028B000F999FECF06C0F2BDE1BDF89A319600B499
:1028C0000D9241505040B8F708952F923F924F9289
:1028D0005F926F927F928F929F92AF92BF92CF92B0
:1028E000DF92EF92FF920F931F93CF93DF93CDB7B9
:1028F000DEB7CA1BDB0B0FB6F894DEBF0FBECDBF31
:1029000009942A88398848885F846E847D848C8401
:102910009B84AA84B984C884DF80EE80FD800C810A
:102920001B81AA81B981CE0FD11D0FB6F894DEBFED
:0C2930000FBECDBFED010895F894FFCF5D
:10293C0001010000000100493D253033754120554F
:10294C003D253032755620412A68002530326C7591
:10295C003A253032753A202020202530366C75000F
:10296C002530326C753A20203A25303264202025EF
:10297C0030366C750020203A253032753A253032CD
:10298C006420202530366C75002530326C753A2564
:10299C003032753A2530326420202530366C750083
:1029AC002D2D3A2D2D3A2D2D20202530366C7500ED
:1029BC00444541442054494D453D253034756D7393
:1029CC0000443D25303275252520463D25303264A6
:1029DC002E25303164487A2020004445414420544F
:1029EC00494D453D202020206D7300443D2530325B
:1029FC0075252520463D20202020487A20200044A3
:102A0C003D2020252520463D253032642E253031B1
:102A1C0064487A202000444541442054494D453DAA
:102A2C002D2D2D2D6D7300443D2D2D252520463D3E
:0A2A3C002D2D2E2D487A20200000D9
:00000001FF
